:020000040800F2
:10000000684301204D0200085D1F0008F11200083E
:10001000591F0008F50D0008F55200080000000007
:100020000000000000000000000000009D0100082A
:10003000AD0F000800000000E10100083D230008AA
:10004000670200086702000867020008292200080A
:1000500067020008670200086702000867020008DC
:1000600067020008670200086702000867020008CC
:1000700067020008670200086702000867020008BC
:1000800067020008670200086702000867020008AC
:10009000670200086702000867020008670200089C
:1000A000670200086702000867020008670200088C
:1000B000C5230008670200086702000867020008FD
:1000C000670200086702000867020008670200086C
:1000D00067020008A1500008C5500008E950000858
:1000E000670200088D210008670200086702000807
:1000F000670200086702000867020008670200083C
:10010000670200086702000867020008670200082B
:10011000595000087D500008670200086702000877
:10012000670200086702000867020008670200080B
:1001300067020008670200086702000867020008FB
:1001400067020008670200086702000867020008EB
:100150006702000867020008670200080D510008E6
:1001600067020008670200086702000867020008CB
:1001700067020008670200086702000867020008BB
:100180006702000867020008DFF80CD000F03EFCB0
:1001900000480047A571000868430120234B1968F7
:1001A0000868B0E8F04F80F309884FF0000080F352
:1001B000118870470000000003480068006880F361
:1001C000088862B600DF00BF08ED00E0DFF80C0031
:1001D000016841F470010160704700BF88ED00E0E4
:1001E000EFF30980114B1A681EF0100F08BF20EDC5
:1001F000108A20E9F04F106008B54FF0500080F3EE
:10020000118808F02DF84FF0000080F31188BDE848
:10021000084019680868B0E8F04F1EF0100F08BFDA
:10022000B0EC108A80F30988704700BFB00100204D
:10023000EFF311804FF0500181F31188704780F384
:1002400011887047EFF3058070470000064880472B
:1002500006480047FEE7FEE7FEE7FEE7FEE7FEE7AB
:10026000FEE7FEE7FEE7FEE75D23000889010008E0
:1002700040EA01039B0703D009E008C9121F08C028
:10028000042AFAD203E011F8013B00F8013B521EA8
:10029000F9D27047D2B201E000F8012B491EFBD21F
:1002A00070470022F6E710B513460A460446194681
:1002B000FFF7F0FF204610BD034611F8012B00F8B0
:1002C000012B002AF9D118467047000070B50F4D78
:1002D00000B92868002412E00A4602E09E4203D0DA
:1002E000521C1378002BF9D1DAB2224305D02BB17E
:1002F00024B1002100F8011B04E00446401C0678EC
:10030000002EE9D12860204670BD000024020020A4
:1003100070B5064605F01CF8046805460A2200215F
:10032000304600F0D0F92C6070BD2DE9FE4F81EA17
:10033000030404F0004421F0004100944FF0000B4E
:1003400023F0004350EA01045ED052EA03045BD07C
:10035000C3F30A54C1F30A552C44A4F2F3340194B4
:10036000A0FB0254C1F3130141F48011C3F3130342
:1003700043F4801301FB024400FB034E840A970AF6
:1003800044EA815447EA8357A4FB076802958D0A23
:1003900005FB07854FEA932C04FB0C542705029DAF
:1003A0004FEA065847EA1637B5EB08056EEB070C1F
:1003B000870E920E47EA811742EA8312A7FB0201D9
:1003C000B6EB0B0164EB00042B0D43EA0C335E1813
:1003D00044EB1C50DA465146E7FB0201C5F3130417
:1003E0004FEA0B3343EA14534FEA0432019C43EAC9
:1003F0000603A4F10C040294009CCDE900B400F0C3
:10040000E0F903B0BDE8F08F00200146F9E72DE9DF
:10041000F04D81EA030404F0004B21F0004514463E
:100420004FF0000A23F0004150EA050220D054EAC0
:1004300001021DD0C5F30A570246C5F31303C1F3E9
:100440001300C1F30A5640F4801543F48013A7EB60
:100450000608101BD64608F2FD3873EB050002D3E0
:1004600008F1010801E092185B41B8F1000F03DACE
:1004700000200146BDE8F08D00204FF480110646B3
:1004800084460EE0171B73EB050705D3121B63EBC5
:10049000050306434CEA010C49084FEA3000921864
:1004A0005B4150EA0107EDD152EA030012D082EA23
:1004B000040083EA0501084305D0101BAB4106D2B6
:1004C0000122002306E000224FF0004302E06FF01B
:1004D000010253101AEB06004CEB085110EB0A0016
:1004E00041EB0B01BDE8F04D00F05CB90EB5C10F5A
:1004F00080EAE0700844CA07002140F233438DE8E7
:100500000E000A460B4600F05CF903B000BD0EB5C4
:1005100040F2334102910021CDE900110A460B4619
:1005200000F04FF903B000BDC1F30A5210B5C1F39A
:10053000130140F2FF3341F480119A4201DA0020A6
:1005400010BD40F233439A42A2F2334203DC5242DE
:1005500000F0A9F810BD904010BD00F0004230F04E
:1005600000400AD0C10D01F56071C0F3160042EAE7
:100570000151C208400711437047002001467047EF
:1005800030B5041E71F1000404DB4FF0004440421A
:1005900064EB0101141E73F1000405DB1C464FF0EF
:1005A0000043524263EB04038B4208BF824230BDDA
:1005B00030B5041E71F1000404DB4FF000444042EA
:1005C00064EB0101141E73F1000405DB1C464FF0BF
:1005D0000043524263EB0403994208BF904230BD8E
:1005E00001F0004330B421F0004150EA010206D08E
:1005F0000A0DA2F56072C1F31301002A02DC30BCBF
:1006000000207047440F44EAC104C100E01830BC28
:1006100000EBC25000F08FB830B50B460146002009
:100620002022012409E021FA02F59D4205D303FAB4
:1006300002F5491B04FA02F52844151EA2F1010235
:10064000F1DC30BD2DE9F05F0546002092469B4667
:1006500088460646814640241BE0284641464746D8
:10066000224600F020F853465A46C01A914110D352
:1006700011461846224600F0DBF92D1A67EB0108F7
:100680004F4622460120002100F0D2F917EB000965
:100690004E41201EA4F10104DFDC484631462A46C3
:1006A0004346BDE8F09F202A04DB203A21FA02F0FD
:1006B0000021704721FA02F3D040C2F1200291409C
:1006C0000843194670472DE9F04791460F4680468A
:1006D0000446002614F8015B2DB100F0CBF9006848
:1006E000405DC007F6D12B2D02D02D2D18D0641EF1
:1006F0004A463946204600F0C1F927B13968A1427F
:1007000001D1C7F8008071054FF002040BD54042BB
:10071000002803DD04F01CFE0460A007BDE8F0879C
:1007200046F48066E4E70028F8DA04F011FE04607D
:100730006FF00040F2E70029A8BF7047401C490055
:1007400008BF20F00100704710B4B0FA80FC00FA36
:100750000CF050EA010404BF10BC704749B1CCF161
:10076000200421FA04F411FA0CF118BF01212143ED
:100770000843A3EB0C01CB1D4FEA00614FEA1020A8
:1007800042BF002010BC704700EBC350104400294A
:10079000A4BF10BC7047401C490008BF20F00100F6
:1007A00010BC704710B5141E73F1000408DA401C29
:1007B00041F1000192185B411A4301D120F0010080
:1007C00010BD2DE9F04D92469B4611B1B1FA81F270
:1007D00002E0B0FA80F22032904600F029F9044697
:1007E0000F4640EA0A0041EA0B0153465A460843C5
:1007F00013D0114653EA010019D0C8F14002504607
:10080000FFF751FF05460E4650465946424600F056
:100810000FF9084305D0012004E020463946BDE821
:10082000F08D0020054346EAE0762C4337430A98D2
:100830006305E40AA0EB08000022FD0A44EA4754DD
:100840000A3002D500200146E9E701051019694187
:10085000DDE9084500196941BDE8F04DA2E72DE941
:10086000FE4F804681EA0300C00F0C46009021F045
:10087000004123F00045B8EB0200A94105D24046F3
:10088000214690461C460B46024623F0004010438A
:1008900047D0270DC7F30A00C3F30A510290401A4C
:1008A000019040286BDAC3F3130040F4801B0098DA
:1008B000924620B10023D2EB030A63EB0B0B0198A5
:1008C0005946C0F14002504600F0B2F806460D46C7
:1008D00050465946019A00F0BAF810EB0800614101
:1008E000002487EA115284EAE7731A4340D0009A41
:1008F00062B3019A012A4FEA075215DC001B61EB33
:1009000002014FF0004202EA0752CDE90042001C0A
:1009100041F5801132462B46FFF753FF03B0BDE887
:10092000F08F40462146F9E7001B61EB0201001CF5
:1009300041F5801300185B412018A2F5001747EB22
:10094000030140EAD570B6196D4111E06D084FEA18
:10095000360645EAC0754FEA0752001B61EB0201FB
:10096000001C41F5801149084FEA3000001951413F
:1009700032462B4603B0BDE8F04FFFF713BF009897
:10098000012240000023D0EB020263EBE0730098E9
:1009900021464FEAE074B8EB000061EB0401E9E79F
:1009A00083F000435BE781F0004158E770B521F028
:1009B000004303430CD0C1F30A550024D5EB0405D2
:1009C00064EB0403D617AD1AB34102DB00200146E5
:1009D00070BD201841EB025170BDC1F30A52C1F342
:1009E000130140F2FF3341F480119A4202DA0020F1
:1009F0000146704740F233439A42A2F2334202DC8E
:100A00005242FFF750BE00F013B80000064C074DED
:100A100006E0E06840F0010394E8070098471034CE
:100A2000AC42F6D3FFF7B4FBC4B60008E4B6000846
:100A3000202A04DB203A00FA02F10020704791409E
:100A4000C2F1200320FA03F3194390407047202A93
:100A500006DBCB17203A41FA02F043EAE07306E0E6
:100A600041FA02F3D040C2F12002914008431946F6
:100A70007047000000487047F4B500082DE9F05FAA
:100A800082460078002715468B460AF10104B946D4
:100A9000302801D09DB113E014F8010B012778280C
:100AA00003D0582801D045B10AE00DB1102D07D16F
:100AB0000027102514F8010B02E0082500E00A25A4
:100AC0000026B0460EE005FB080005FB06F10127F5
:100AD00001EB10461FFA80F8B6F5803F00D3B94607
:100AE00014F8010B294600F069F80028EBDABBF195
:100AF000000F05D00FB1641E00E05446CBF8004053
:100B0000B9F1000F06D004F023FC02210160C81ED9
:100B1000BDE8F09F48EA0640FAE72DE9F04D0023D2
:100B20001A461B1A8A4103DB00200146BDE8F08DFE
:100B3000C1F30A52C1F3130141F480154FF0000BC9
:100B4000D10702D100186D41521E0027044640F221
:100B5000FF11384601EB620A3E46804602460020FD
:100B60004FF48011FFF79FFDC2197141BB1846EB8E
:100B70000100B4EB030C75EB000C04D3E41A65EB35
:100B8000000517460E46241908F101006D41804604
:100B90003428E3DDF91946EB0600091BA84103D20E
:100BA0004FF0FF32134601E0002213461BEB070013
:100BB00046EB0A51BDE8F04DFFF7F4BD3A2800D2EC
:100BC000303820F02002412A01D3A2F137008842B8
:100BD00001D34FF0FF30704770B58C1810F8015BEF
:100BE00015F0070301D110F8013B2A1106D110F8C6
:100BF000012B03E010F8016B01F8016B5B1EF9D1CA
:100C00002B0705D40023521E0DD401F8013BFAE74F
:100C100010F8013BCB1A921C03E013F8015B01F8BA
:100C2000015B521EF9D5A142D8D3002070BD00004F
:100C30000021084A1168084A1140D0E900231A43EC
:100C400083681A43C3681A431143044AC2F8041361
:100C50007047000004230140E030FCFF0020014009
:100C600030B50246002000235068104C20400D791A
:100C70000C6844EA05242043506090680C4C2040E6
:100C8000D1E903542C438D682C434D7944EA450443
:100C900020439060D06A20F470000C7D641EE4B2A2
:100CA000234340EA0350D06230BD0000FFFEFFFC4A
:100CB000FDF7FFC0F0B504460D4600200021092DC8
:100CC00011DDE068A5F10A0606EB4607072606FADD
:100CD00007F18843A5F10A0606EB460603FA06F17A
:100CE0000843E0600CE0206905EB4507072606FA9B
:100CF00007F1884305EB450603FA06F10843206136
:100D0000072A0FDA606B561E06EB86071F2606FAC7
:100D100007F18843561E06EB860605FA06F10843DE
:100D2000606322E00D2A0FDA206BD61F06EB8607E0
:100D30001F2606FA07F18843D61F06EB860605FA3A
:100D400006F10843206310E0E06AA2F10D0606EB0D
:100D500086071F2606FA07F18843A2F10D0606EB67
:100D6000860605FA06F10843E062F0BD10B50022E0
:100D70004621054800F050FC1021034800F090FC8B
:100D8000014800F07DFC10BD0054004010B52DED71
:100D9000048B002401224621124800F03DFC11483A
:100DA00000F00AFC104908700E4800F01BFC0E49C8
:100DB000487049780C4A127841EA0220FFF796FB06
:100DC00041EC190B9FED090B53EC102BFFF71FFBA8
:100DD00041EC180BFFF7A8FB84B22046BDEC048B56
:100DE00010BD0000005400401C0100203333333399
:100DF0003333F33F00BFFEE7FEB5002001900290C1
:100E000001F052FF01F0F8FE0121084601F0FAF866
:100E10004FF480605A49086001200871032048712E
:100E200000208871C871574800F09AF94FF480612A
:100E3000544800F00BFA282000F0CEF84FF48061FF
:100E4000504800F001FA4FF019004F49096800912D
:100E500000BFEFF3058139B900BF4B490968009A1B
:100E6000891A8142F9D309E006E04FF0E0210969CF
:100E700001F4803101B1401E0028F6D100BF4FF4CB
:100E80008061404800F0E2F94FF480603C4908601E
:100E9000002008710320487100208871C87139480A
:100EA00000F05EF9282000F097F84FF48061354893
:100EB00000F0C1F9012801D10020FEBD502000F052
:100EC0008BF84FF480612F4800F0B5F908B9002085
:100ED000F3E7502000F080F84FF48061294800F0DB
:100EE000AAF9012801D10020E7E7002429E0002524
:100EF00023E000BF4FF48061224800F09CF90028F5
:100F0000F8D0322000F068F84FF480611D4800F0FE
:100F100092F980B101A8005DC5F10702012191405D
:100F2000084301A9085500BF4FF48061154800F03F
:100F300082F90028F8D1681CC5B2082DD9DB601CE5
:100F4000C4B2052CD3DB9DF804009DF805100844BD
:100F50009DF8061008449DF807100844C6B29DF895
:100F60000800B04201D00020A7E79DF8060007491D
:100F700008709DF804000649087001209DE70000F4
:100F80002001002000000240400100202801002034
:100F90002901002001480078704700002901002045
:100FA000014800787047000028010020704708B50C
:100FB0004FF08041496A009100BF00BF4FF080416F
:100FC000496A009A891AF9D04FF08041496A009124
:100FD000411E081EF1D108BD08B54FF08041496A95
:100FE000009100BF00BF4FF08041496A009A891A02
:100FF000F9D04FF08041496A0091411E081EF1D19D
:1010000008BD000051B18200A2F1C042126842F056
:1010100001038200A2F1C042136009E08200A2F144
:10102000C0421268034B1A408300A3F1C0431A6008
:1010300070470000FEFF0F0030B5002100220023A2
:101040000468A400A4F1C0442168444C2140D0E9C4
:1010500001452C43C5682C4305692C4345692C4345
:1010600085692C43C5692C43056A2C43456A2C438A
:10107000856A2C43C56A2C43056B2C4321430468C5
:10108000A400A4F1C04421608468082C0BD104683A
:10109000A400A4F1C044246844F040050468A400FE
:1010A000A4F1C04425600468641CA400A4F1C044F9
:1010B000226802F04042446B2468456B6D6844EA44
:1010C0000514456BAD6844EA0524456BAD8944EAD7
:1010D0000544456B2D8A44EA0554456B2D7D44EA51
:1010E0000564456BAD692C4322430468641CA4006D
:1010F000A4F1C0442260C46AB4F5804F24D10468CE
:10110000A400A4F1C044D4F8043103F04043846B3C
:101110002468856B6D6844EA0514856BAD6844EA04
:101120000524856B2D8A44EA0554856B2D7D44EAA0
:101130000564856BAD692C4323430468A400A4F1C6
:10114000C044C4F8043107E06FF070450468A4009F
:10115000A4F1C044C4F8045130BD00008000F7FF82
:10116000F0B50A4600210023002400BF3DE0012520
:1011700005FA01F3156805EA03049C4234D10568B9
:101180004F000326BE40B543056015794E00B540BB
:101190000668354305601579012D02D01579022DB9
:1011A00016D185684F000326BE40B543856055794A
:1011B0004E00B540866835438560456801268E40FF
:1011C000B5434560456896798E40B6B23543456073
:1011D000C5684F000326BE40B543C560D5794E00B3
:1011E000B540C6683543C560491C1029BFD3F0BD62
:1011F000F0B5002300244D07ED0E02FA05F3CE10E2
:1012000000F1200555F826504E07F70E0F26BE4078
:10121000B543CF1000F1200646F82750CE1000F15C
:10122000200555F8265045EA0304CE1000F12005AC
:1012300045F82640F0BD0246002013690B400BB173
:10124000012000E000207047418370470183704710
:10125000A1F12002034B03EBC20213680360526842
:1012600042607047E4B10008A1F1200202EB4202A3
:10127000044B03EB82021368036053684360926877
:101280008260704770AD000870B505460C46A4F149
:10129000200000EB4000044A02EBC001182228465F
:1012A000FEF7E6FF70BD000088A4000870B5054693
:1012B0000C46A4F12000044A02EB0011102228463B
:1012C000FEF7D6FF70BD0000989E000870B5054679
:1012D0000C46A4F1200000EB4000044A02EB001190
:1012E00030222846FEF7C4FF70BD0000C88C0008FD
:1012F00000BFFEE700B587B00121480500F0A2FE5F
:101300000121022000F07EFE4FF440700590022083
:101310008DF8180003208DF8190001208DF81A00AF
:1013200000208DF81B0005A91548FFF719FF0422BE
:1013300008211348FFF75CFF042209211048FFF73A
:1013400057FF104800F050F80F4801900020ADF80A
:1013500008004FF48040ADF80A000120ADF80C0001
:101360008002ADF80E000001ADF8100001A905489B
:1013700000F0A0F80121034800F029F807B000BDF3
:101380000004024000540040801A060021B1028887
:1013900042F48062028004E002884FF6FF331A4074
:1013A0000280704770B5024600240025002300200B
:1013B000958A138B1B0445EA030626F07F4404EA52
:1013C00001068E4201D1012000E0002070BD21B154
:1013D000028842F00102028004E002884FF6FE73A8
:1013E0001A4002807047000010B50446134884423A
:1013F00009D10121480500F035FE00214FF400100D
:1014000000F030FE18E00E48844209D10121880521
:1014100000F028FE00214FF4800000F023FE0BE0D6
:101420000848844208D10121C80500F01BFE0021B4
:101430004FF4000000F016FE10BD00000054004004
:1014400000580040005C004021B1028842F48072E4
:10145000028004E002884FF6FF631A400280704762
:1014600021B1028842F40072028004E002884FF643
:10147000FF531A40028070470CB50246002000233B
:101480000193009300920B0F019321F07F41019B88
:101490001BB1009B1433009303E0090C009B18332D
:1014A0000093009B1B680B400BB1012000E0002063
:1014B0000CBD00002DE9FF4704460D460026B1464D
:1014C0000427DFF8CC80A6884FF6C0700640684637
:1014D00000F0E8FDDDF808802E48B8FBF0F01FFAB8
:1014E00080F946EA0906A68020884FF6FE7108407A
:1014F000208000262849286888420CD828684000A7
:10150000B8FBF0F087B2042F00DA04273E4309F15C
:101510000100208427E0E8884BF6FF71884206D15D
:10152000286800EB4000B8FBF0F087B209E02868BB
:1015300000EBC00101EB0010B8FBF0F087B247F4FC
:101540008047C7F30B0008B947F0010747F4004094
:1015500006434FF4967009FB00F04FF47A7190FB4C
:10156000F1F0401C2084A683208840F001002080F8
:1015700026884FF6F5300640A88869890843064357
:101580002680A889298908432081BDE8FF870000BB
:1015900000127A0040420F00A08601000146088A2E
:1015A000C0B2704712B141F0010101E001F0FE014B
:1015B000018270470182704770B5044601212046C0
:1015C000FFF7E4FE00BF06492046FFF7EBFE0028C8
:1015D000F9D02046FFF7E2FF0546284670BD00001F
:1015E0004000030070B5044600212046FFF7CEFE00
:1015F00001212046FFF734FF00BF06492046FFF7D0
:10160000D1FE0028F9D02046FFF7C8FF054628463E
:1016100070BD00004000030070B505460E4614463C
:1016200000BF4FF400312846FFF726FF0028F8D10D
:1016300001212846FFF708FF00BF0F492846FFF7A2
:10164000B1FE0028F9D0224631462846FFF7AAFF0E
:101650003CB900BF09492846FFF7A4FE0028F9D08D
:1016600009E0012C07D100BF0349491C2846FFF7B8
:1016700099FE0028F8D070BD010003008200070029
:1016800010B5044601212046FFF7EAFE00BF0349DA
:101690002046FFF787FE0028F9D010BD8400070020
:1016A00070B504460D4600BF05492046FFF77AFE97
:1016B0000028F9D029462046FFF77CFF70BD0000C6
:1016C0008000070001B5BDF800000149088008BD91
:1016D0001001002030B5044600250021084600F026
:1016E000A7FB00F025FC00BF02E0034804806D1C4E
:1016F000B5F5963FF9D330BD000002602DE9F04307
:1017000080460D4614461E460027A146214628461F
:1017100000F08EFB00F00CFC00BF10E01CB9681C50
:1017200085B21FFA89F42146284600F081FB00F0BB
:10173000FFFB404600F002FC601E84B27F1CB742F3
:10174000ECD3BDE8F08300001CB50121582000F067
:1017500059FC0121084600F065FC0C220021434899
:10176000FFF746FD0C2201214048FFF741FD0C2206
:1017700004213E48FFF73CFD0C2205213B48FFF7C2
:1017800037FD0C2207213948FFF732FD0C220821D2
:101790003648FFF72DFD0C2209213448FFF728FDBC
:1017A0000C220A213148FFF723FD0C220B212F4880
:1017B000FFF71EFD0C220E212C48FFF719FD0C220D
:1017C0000F212A48FFF714FD0C2207212848FFF7B4
:1017D0000FFD0C2208212648FFF70AFD0C220921E3
:1017E0002348FFF705FD0C220A212148FFF700FDE1
:1017F0000C220B211E48FFF7FBFC0C2211461C4853
:10180000FFF7F6FC0C220D211948FFF7F1FC0C2222
:101810000E211748FFF7ECFC0C220F211448FFF7AC
:10182000E7FC4CF6B370009002208DF80400032012
:101830008DF8050000208DF806008DF80700694638
:101840000A48FFF78DFC4FF68070009002208DF85B
:10185000040003208DF8050000208DF806008DF8A7
:10186000070069460248FFF77BFC1CBD000C0240E4
:101870000010024000B597B00020019002900220B5
:10188000039000200490012005900020069007900E
:10189000089009900A9010200B9000200C900E9058
:1018A0000F9010904FF480501190002012900D90E6
:1018B00013904FF40020149001A8159008A8FFF78A
:1018C000BBFB0020019002900420039000200490B4
:1018D0000120059000200690079001A8169008A806
:1018E000FFF7AAFB01210020FFF78CFB17B000BD1A
:1018F00010B5FFF729FF40F6B830FFF758FBFFF7A8
:10190000B9FF40F6B830FFF752FB2121072000F065
:101910001BFB3220FFF74BFB0121002000F014FBE2
:101920003220FFF744FB2321072000F00DFB32207B
:10193000FFF73DFB0021102000F006FB5A20FFF7C7
:1019400036FB3321072000F0FFFA3220FFF72FFB90
:1019500046F63001112000F0F7FA3220FFF727FB9E
:101960004FF4C061022000F0EFFA3220FFF71FFBB6
:1019700046F6EB41122000F0E7FA3220FFF717FBA2
:101980004AF6A401032000F0DFFA3220FFF70FFB34
:1019900000210C2000F0D8FA3220FFF708FB40F6B7
:1019A0000C010D2000F0D0FA3220FFF700FB4FF4BD
:1019B0002C510E2000F0C8FA3220FFF7F8FAB021BF
:1019C0001E2000F0C1FA3220FFF7F1FA42F63F3153
:1019D000012000F0B9FA3220FFF7E9FA00210520D2
:1019E00000F0B2FA3220FFF7E2FA0021062000F000
:1019F000ABFA3220FFF7DBFA4EF61C71162000F02E
:101A0000A3FA3220FFF7D3FA40F20311172000F0B7
:101A10009BFA3220FFF7CBFA00210B2000F094FA5A
:101A20003220FFF7C4FA00210F2000F08DFA322097
:101A3000FFF7BDFA0021412000F086FA3220FFF7BF
:101A4000B6FA0021422000F07FFA3220FFF7AFFA09
:101A50000021482000F078FA3220FFF7A8FA40F27F
:101A60003F11492000F070FA3220FFF7A0FA002160
:101A70004A2000F069FA3220FFF799FA00214B2042
:101A800000F062FA3220FFF792FA4FF46F414420DF
:101A900000F05AFA3220FFF78AFA0021452000F0C0
:101AA00053FA3220FFF783FA40F23F11462000F04C
:101AB0004BFA3220FFF77BFA40F20771302000F03A
:101AC00043FA3220FFF773FA4FF40171312000F02E
:101AD0003BFA3220FFF76BFA4FF40171322000F02D
:101AE00033FA3220FFF763FA40F20251332000F05C
:101AF0002BFA3220FFF75BFA40F20751342000F056
:101B000023FA3220FFF753FA4FF40171352000F029
:101B10001BFA3220FFF74BFA4FF40171362000F028
:101B200013FA3220FFF743FA40F20251372000F057
:101B30000BFA3220FFF73BFA40F202313A2000F074
:101B400003FA3220FFF733FA41F2BE212F2000F0D2
:101B5000FBF93220FFF72BFA40F202313B2000F074
:101B6000F3F93220FFF723FA0021232000F0ECF9EB
:101B70003220FFF71CFA0021242000F0E5F9322082
:101B8000FFF715FA4FF40041252000F0DDF932206F
:101B9000FFF70DFA00214F2000F0D6F93220FFF7B1
:101BA00006FA00214E2000F0CFF93220FFF7FFF9AE
:101BB00010BD00002DE9F0438DB007460E4690465B
:101BC00000240025B8F10A0F7ED09248008808282A
:101BD00033D14FF00009B8F10A0F02D1A6F1080085
:101BE00006B241460BA8FFF733FB002422E00BA806
:101BF00010F80490002519E049FA05F000F0010002
:101C000048B1721911B23A1910B2834A128812B24D
:101C100000F0E2F908E0721911B23A1910B27F4AE5
:101C2000128812B200F0D8F9681CC5B2082DE3DBA7
:101C3000601CC4B2082CDADB00BF764800880C2890
:101C400033D14FF00009B8F10A0F02D1A6F10C0010
:101C500006B241460AA8FFF707FB002422E00AA8C3
:101C600010F80490002519E049FA05F000F0010091
:101C700048B1721911B23A1910B2674A128812B2F9
:101C800000F0AAF908E0721911B23A1910B2634AC9
:101C9000128812B200F0A0F9681CC5B2082DE3DB6F
:101CA000601CC4B20C2CDADB00BF5A480088102834
:101CB00035D14FF00009B8F10A0F02D1A6F110009A
:101CC00006B2414609A800E0A1E0FFF7EFFA0024C0
:101CD00022E009A810F80490002519E049FA05F05F
:101CE00000F0010048B1721911B23A1910B24A4A13
:101CF000128812B200F070F908E0721911B23A19A4
:101D000010B2464A128812B200F066F9681CC5B2D9
:101D1000082DE3DB601CC4B2102CDADB00BF3D48A9
:101D200000880E2837D14FF00009B8F10A0F02D110
:101D3000A6F10C0006B2414607A8FFF7A5FA002459
:101D400026E007A830F814001FFA80F900251BE0F0
:101D5000C5F10C0049FA00F000F0010048B1721919
:101D600011B23A1910B22C4A128812B200F034F9AA
:101D700008E0721911B23A1910B2284A128812B248
:101D800000F02AF9681CC5B20C2DE1DB601CC4B25E
:101D90000C2CD6DB00BF1F480088182837D14FF025
:101DA0000009B8F10A0F02D1A6F1180006B24146A7
:101DB00001A8FFF78BFA002426E001A830F81400F0
:101DC0001FFA80F900251BE0C5F1100049FA00F068
:101DD00000F0010048B1721911B23A1910B20E4A5E
:101DE000128812B200F0F8F808E0721911B23A192C
:101DF00010B20A4A128812B200F0EEF8681CC5B29E
:101E0000102DE1DB601CC4B2182CD6DB00BF0DB076
:101E1000BDE8F083100100200C0100200E0100201D
:101E200001B5BDF800000149088008BD0E01002081
:101E300010B503460C4619464E2000F085F82146A1
:101E40004F2000F081F810BDF0B504460D4616464F
:101E50001F46B44206DBA01B401C81B2442000F0A8
:101E600073F803E00021442000F06EF8BD4206DB69
:101E7000E81B401C81B2452000F066F803E0002119
:101E8000452000F061F82946462000F05DF829461B
:101E90002046FFF7CDFFF0BD01B5BDF800000149B8
:101EA000088008BD0C0100202DE9F04105460C46D4
:101EB0001646A04600BF16F8017B3A4621B228B26A
:101EC000FFF778FE19480088844218DD174800881B
:101ED0000838201A84B215480088182805D11348FC
:101EE00000881238201A84B21AE0104800880C28A2
:101EF00016D10E4800880838201A84B210E00B482A
:101F0000008840F25311081AA84206DD1FFA88F42F
:101F100006480088284485B202E0E0254FF4987412
:101F200030780028C7D1BDE8F08100001001002002
:101F300022204FF0C041088070470000014908800E
:101F400070470000000002604FF0C0421080014A5C
:101F5000118070470000026000BFFEE7704700007C
:101F600070B5002100230F22C4781CB3174C2468DD
:101F700004F4E064C4F5E064C4F30721C1F104048F
:101F8000E3B20A4144789C40E1B284781440214392
:101F90000C07210E0E4C05786155047804F01F05DE
:101FA0000124AC4005786D11AD0005F1E025C5F8C0
:101FB000004109E0047804F01F050124AC40054D00
:101FC0000678761145F8264070BD00000CED00E063
:101FD00000E400E080E100E070B504460D461646DE
:101FE000EF2C02DCB5F5A07F00DB70BDA9B2A0B27A
:101FF000FFF71EFFFFF79CFFB0B2FFF79FFF00BF88
:10200000F3E7000029B1064A12680243044B1A6044
:1020100004E0034A12688243014B1A6070470000D3
:102020003038024029B1064A12680243044B1A6054
:1020300004E0034A12688243014B1A6070470000B3
:102040003838024029B1064A12680243044B1A602C
:1020500004E0034A12688243014B1A607047000093
:102060004038024029B1064A12680243044B1A6004
:1020700004E0034A12688243014B1A607047000073
:102080002038024029B1064A12680243044B1A6004
:1020900004E0034A12688243014B1A607047000053
:1020A00024380240F0B50021002200240225002639
:1020B0000223324F3F6807F00C0121B1042905D0FB
:1020C000082937D105E02E4F076036E02D4F076015
:1020D00033E02A4F3F1F3F68C7F38056274F3F1F0B
:1020E0003F6807F03F036EB1264FB7FBF3F7DFF809
:1020F0008CC0ACF1040CDCF800C0CCF3881C07FBEE
:102100000CF40CE01E4FB7FBF3F7DFF870C0ACF136
:10211000040CDCF800C0CCF3881C07FB0CF4174F50
:102120003F1F3F68C7F301477F1C7D00B4FBF5F7F5
:10213000076002E0124F076000BF00BF0F4F3F680B
:1021400007F0F0010909104F7A5C0768D740476033
:102150000A4F3F6807F4E051890A0B4F7A5C4768E1
:10216000D7408760054F3F6807F46041490B064F31
:102170007A5C4768D740C760F0BD0000083802406D
:102180000024F40000127A00FC00002010B54FF487
:10219000805000F029F828B14FF4805000F014F876
:1021A00002F09AFA4FF4005000F01EF828B14FF4F4
:1021B000005000F009F802F090FA4FF400300149A5
:1021C000086010BD143C0140002101098AB242F0B0
:1021D0008002044B1B6803F0800363EA0202014B98
:1021E0001A6070470C28004030B5014600200022DC
:1021F00000230C4C246804F004020A4C383C246888
:102200000C4002EAD13544EA0503064C343C24680C
:1022100004EA11121BB194B20CB1012000E00020BD
:1022200030BD00004028004010B54FF48040FFF75B
:10223000DBFF28B14FF48040FFF7C6FF02F04EFAF3
:102240004FF480000149086010BD0000143C0140BB
:102250000CB50020019000903448006840F48030B4
:102260003249086000BF3148006800F40030009037
:102270000198401C0190009818B90198B0F5A04F42
:10228000F1D12A48006800F4003010B1012000901C
:1022900001E0002000900098012846D123484030FA
:1022A000006840F0805021494031086020480068B3
:1022B00040F440401E4908601C48083000681B4933
:1022C000083108600846006840F40040086008468D
:1022D000006840F4A05008601648091F0860081FF5
:1022E000006840F08070091F086000BF0F48006858
:1022F00000F000700028F9D040F205700E49086027
:102300000A480830006820F00300084908310860D6
:102310000846006840F00200086000BF034808302B
:10232000006800F00C000828F8D10CBD003802400D
:102330000070004019544007003C024010B5FDF702
:1023400077FF06F009FB18B14FF080500249086092
:102350000020FDF774FF10BD04ED00E010B5154836
:10236000006840F47000134908601348006840F0AA
:1023700001001149086000200F49083108600E482B
:1023800000680E4908400C4908600D48091D0860A6
:10239000081F006820F48020091F086000200649FB
:1023A0000C310860FFF754FF4FF00060014980399D
:1023B000086010BD88ED00E000380240FFFFF6FE27
:1023C0001030002410B54FF6FE704FF080410882A7
:1023D00027480068401C264908602648006820B14C
:1023E00024480068401E23490860AFF300800024A1
:1023F00038E0214850F8240090B31F4850F82400DA
:10240000007B68B31C4850F82400806840B31A4829
:1024100050F824008168491E174850F82400816054
:10242000154850F824008068D0B9134A52F8242087
:102430005069114A52F82420116988470E4850F813
:10244000240001680C4850F8240081600A4850F8C4
:102450002400406820B90021074850F82400017387
:10246000601CC4B20448001F0078A042C1DC10BD4B
:102470004001002044010020740F002021B1028897
:1024800042F00102028004E002884FF6FE731A4017
:102490000280704770B5002400220023058C4FF69F
:1024A000FE7635400584028C8388048B4FF68F7549
:1024B0002C40B51E2C400D882C43751E2A408D895A
:1024C0002A434D882A43104DA84202D00F4DA842FE
:1024D00013D14FF6F7752A40CD892A434FF6FB7585
:1024E0002A408D882A434FF6FF652B404FF6FF5553
:1024F0002B400D8A2B434D8A2B43838004838D68A8
:102500004563028470BD00000000014000040140EA
:102510000A460021018B4FF6F773194011430183DE
:102520007047000070B5002400220023058C4FF690
:10253000EF7635400584028C8388048B48F6FF755E
:102540002C404FF6FF452C400D884FF6FF7606EAEB
:1025500005252C434FF6DF752A408D8906EA0515BF
:102560002A434D8806EA05152A43154DA84202D094
:10257000144DA8421DD14FF67F752A40CD894FF6E4
:10258000FF7606EA05152A434FF6BF752A408D8867
:1025900006EA05152A434FF6FF352B404FF2FF752B
:1025A0002B400D8A06EA85052B434D8A06EA8505F0
:1025B0002B43838004838D688563028470BD000093
:1025C00000000140000401400A460021018B4FF247
:1025D000FF7319404FF6FF7303EA02231943018387
:1025E0007047000070B5002400220023058C4FF6D0
:1025F000FF6635400584028C8388848B4FF68F7587
:102600002C404FF6FC752C400D882C434FF6FF559F
:102610002A408D894FF6FF7606EA05252A434D8824
:1026200006EA05252A43154DA84202D0144DA842BA
:102630001DD14FF2FF752A40CD894FF6FF7606EA8D
:1026400005252A434FF6FF352A408D8806EA0525E1
:102650002A434EF6FF752B404DF6FF752B400D8A31
:1026600006EA05152B434D8A06EA05152B438380A0
:1026700084838D68C563028470BD00000000014042
:10268000000401400A460021818B4FF6F773194080
:10269000114381837047000070B50022002300249D
:1026A000058C4EF6FF7635400584038C8488828B3A
:1026B00048F6FF752A404FF6FF452A400D884FF631
:1026C000FF7606EA05252A434DF6FF752B408D89D6
:1026D00006EA05352B434D8806EA05352B430A4D9E
:1026E000A84202D0094DA84208D14BF6FF752C40F4
:1026F0000D8A4FF6FF7606EA85152C438480828387
:102700008D680564038470BD000001400004014031
:102710000A460021818B4FF2FF7319404FF6FF7379
:1027200003EA0223194381837047000000220288D4
:10273000184B98420ED0184B98420BD0B0F1804FF6
:1027400008D0164B984205D0154B984202D0154B35
:10275000984204D14FF68F731A404B881A43124B9C
:10276000984207D0114B984204D04FF6FF431A40CD
:102770000B891A4302804B68C3620B880385054BA3
:10278000984202D0044B984201D18B7A03860123F0
:1027900083827047000001400004014000040040B3
:1027A00000080040000C00400010004000140040F1
:1027B00010B504460121024800F03CF910BD0000AC
:1027C0000000024010B504460121024800F032F931
:1027D00010BD00000008024010B504460221024866
:1027E00000F028F910BD00000008024010B50446B2
:1027F0000421024800F01EF910BD0000000802404C
:1028000010B504460821024800F014F910BD00007C
:102810000008024010B504460848844202D0084827
:10282000844203D11021074800F004F9064884428D
:1028300003D11021054800F0FDF810BD0020014033
:102840000021014000080240002201400014024023
:1028500010B504460948844202D00948844204D194
:102860002021084800F0E6F806E00748844203D13A
:102870002021064800F0DEF810BD000000200140D5
:1028800000210140000802400022014000140240E3
:1028900010B504460221024800F0CCF810BD00003B
:1028A0000000024010B504460421024800F0C2F8BE
:1028B00010BD00000000024010B504460821024887
:1028C00000F0B8F810BD00000000024010B504464A
:1028D0000848844202D00848844203D110210748A6
:1028E00000F0A8F80648844203D14021054800F0D2
:1028F000A1F810BD0020014000210140000002406D
:10290000002201400014024010B5044608488442E9
:1029100002D00848844203D12021074800F08AF8F9
:102920000648844203D18021054800F083F810BD99
:10293000002001400021014000000240002201402F
:102940000014024010B504460848844202D00848EA
:10295000844203D14021074800F06CF806488442C5
:1029600003D18115054800F065F810BD0020014035
:1029700000210140000002400022014000140240FA
:1029800010B504460848844202D00848844203D166
:102990008021074800F04EF80648844203D14115D3
:1029A000054800F047F810BD00200140002101401B
:1029B00000000240002201400014024010B504460D
:1029C0000848844202D00848844203D101210748C4
:1029D00000F030F80648844203D10115054800F0A4
:1029E00029F810BD002001400021014000040240F0
:1029F000002201400014024010B5044608488442F9
:102A000002D00848844203D10221074800F012F89E
:102A10000648844203D10821054800F00BF810BD98
:102A2000002001400021014000040240002201403A
:102A3000001402407CB504460D460120022100230B
:102A40000322CDE900102946204600F0ADFA7CBDF6
:102A500070B506460D462C461CB93046FFF7A8FE59
:102A600058E0012C03D13046FFF712FF52E0022C50
:102A700003D13046FFF716FF4CE0032C03D130465C
:102A8000FFF71AFF46E0042C03D13046FFF71EFF84
:102A900040E0052C03D13046FFF736FF3AE0062C24
:102AA00003D13046FFF74EFF34E0072C03D1304608
:102AB000FFF766FF2EE0082C03D13046FFF77EFFBC
:102AC00028E0092C03D13046FFF796FF22E00A2CBC
:102AD00003D13046FFF776FE1CE00B2C03D13046C5
:102AE000FFF77AFE16E00C2C03D13046FFF77EFE8E
:102AF00010E00D2C03D13046FFF782FE0AE00E2CC9
:102B000003D13046FFF786FE04E00F2C02D1304699
:102B1000FFF79EFE304600F001F870BD10B58AB098
:102B2000044600208DF815000890079006900120BB
:102B30008DF8240000208DF814001C48844208D130
:102B40001B48006840F48070194908600020049018
:102B500016E01848844208D11548006840F4007017
:102B600013490860002004900AE01348844207D10A
:102B70000F48006840F480600D4908600020049010
:102B80000020029000904FF4803001904FF440708C
:102B900003906846FEF74CF804A92046FEF760F85B
:102BA000A06840F00100A0600AB010BD0020014004
:102BB00044380240002101400022014070B5044623
:102BC0000D4640F6FF7601231A4629462046FEF7B9
:102BD00071F8A06840F08040A06004E0301EA6F1CB
:102BE000010600D170BD206800F002000028F5D079
:102BF000E06C80B2F6E7000000B58BB001A94FF0A1
:102C0000804001F0A3FE9FED240B01A801F034FEEB
:102C10004FF0804001F080FD0020ADF82800ADF8B5
:102C2000220040F2E73009901D4901980968B1FB84
:102C3000F0F01C4948431A490968B1FBF0F0401E06
:102C400080B2ADF8200000208DF82A0008A94FF0CE
:102C50008040FFF76BFD4FF08040808940F001001D
:102C60004FF0804188811C208DF81C0001208DF8D8
:102C70001F0000208DF81D008DF81E0007A8FFF72B
:102C80006FF94FF08040008840F001004FF0804124
:102C900008800BB000BD00000000000080842E41C1
:102CA000E800002040420F0010B5FFF7A5FF01200B
:102CB0000149087010BD00004C0100201CB5002027
:102CC000022103460246CDE900100121014800F02F
:102CD0006BF91CBD000002401CB5032000210B460F
:102CE0000122CDE900104FF47041044800F05CF976
:102CF0004FF4704001491A3108801CBD000C02409D
:102D000001460A1102EB8202500001F00F02024458
:102D1000D0B270470146002300220A2091FBF0F058
:102D2000C2B202EB8200A1EB4000C3B243EA021040
:102D3000C0B2704703468B4201DA0846704793429F
:102D400001DD1046FAE71846F8E710B5042000F058
:102D500001F810BD70B505460DB9902412E0012DA3
:102D600001D191240EE0022D01D192240AE0032D1D
:102D700001D1932406E0042D01D1802402E0052D29
:102D800000D1002423460722D021024800F080FB16
:102D900070BD0000005800403EB50446072001AB5E
:102DA0000022D0210090134800F0A8FA9DF80400FA
:102DB000FFF7A6FF20609DF80500FFF7A1FF606008
:102DC0009DF80600FFF79CFFA0609DF80700FFF745
:102DD00097FFE0609DF80800FFF792FF20619DF8E3
:102DE0000900FFF78DFF60619DF80A00FFF788FF7B
:102DF000A0613EBD0058004010B5074A00210748B9
:102E000000F0BEF9D021054800F045FA08B90220CB
:102E100010BD0020FCE70000801A060000580040AA
:102E20003EB5044620783B220021FFF783FF05468C
:102E3000FFF770FF8DF8040020793B220021FFF797
:102E400079FF0546FFF766FF8DF80500207A172207
:102E50000021FFF76FFF0546FFF75CFF8DF80600C6
:102E6000207B07220121FFF765FF0546FFF752FF90
:102E70008DF80700207C1F220121FFF75BFF05462C
:102E8000FFF748FF8DF80800207D0C220121FFF795
:102E900051FF0546FFF73EFF8DF80900207E6322B3
:102EA0000021FFF747FF0546FFF734FF8DF80A00C2
:102EB000072001AB0022D0210090024800F018FB4F
:102EC0003EBD00000058004001464FF40030081A93
:102ED000C0F38F207047000000B502461046FFF790
:102EE000F3FF012101FA00F0024909680843014992
:102EF000086000BD303802402DE9F04304460E461C
:102F00001546DDE907892046FFF7DEFFC7B200223C
:102F100043E001209040304000B93CE0214830F8C7
:102F200017000121914008431E4921F81700E0686D
:102F30004FEA420C032101FA0CF18843510008FAD0
:102F400001F10843E06020684FEA420C032101FAD6
:102F50000CF18843510005FA01F108432060012D6E
:102F600001D0022D16D161680120904080B221EA83
:102F7000000003FA02F189B208436060A0684FEADA
:102F8000420C032101FA0CF18843510009FA01F1C6
:102F90000843A06000BF501CC2B2102AB9DBBDE8D4
:102FA000F0830000580F00202DE9FC4305460C4635
:102FB00016461F46DDE909890CB9BDE8FC832846A1
:102FC000FFF78AFF3B46324621462846CDE9008975
:102FD000FFF792FF00BFF0E72DE9FC4705460E46DC
:102FE00017469846DDE90A9A0EB9BDE8FC872846DF
:102FF000FFF772FF00241AE00120A040304000B922
:1030000014E0E10805F1200050F821006107CA0E24
:103010000F21914088436107C90E0AFA01F1084364
:10302000E20805F1200141F8220000BF641C102CC9
:10303000E2D33B46022231462846CDE90089FFF71C
:103040005BFF00BFD1E700001CB504464CB904206B
:1030500001210B460A46CDE90010C0211148FFF7B7
:10306000BBFF012C0AD1042001210B460A46CDE901
:1030700000104FF440710B48FFF7AEFF022C0AD14D
:10308000042001210B460A46CDE900104FF41071CF
:103090000448FFF7A1FF032C03D10421024800F0EC
:1030A000F9F81CBD00040240005400401CB5044661
:1030B00054B9042001210B460A46CDE900104FF413
:1030C00040611148FFF788FF012C09D1042001213C
:1030D0000B460A46CDE9001003210C48FFF77CFFA0
:1030E000022C09D1042001210B460A46CDE900102B
:1030F00030210748FFF770FF032C03D10421054856
:1031000000F0C8F81CBD000000040240001402409A
:10311000001C0240005800401CB504469CB9042025
:1031200001210B460A46CDE9001081011048FFF746
:1031300053FF042001210B460A46CDE90010C101CE
:103140000C48FFF749FF012C0AD1042001210B464E
:103150000A46CDE900104FF4C0710748FFF73CFF65
:10316000032C03D10421054800F094F81CBD000095
:103170000000024000080240001C0240005C0040C9
:103180007FB504460E4615463D48844221D13D4850
:10319000006840F400103B4908603046FFF754FFD8
:1031A00039480068A84201D93748056036480068A8
:1031B00000904FF48040ADF80C000020ADF8040002
:1031C000ADF80800ADF80A004BF6FF70ADF8060048
:1031D00048E02E48844221D12A48006840F480000B
:1031E000284908603046FFF761FF27484068A84239
:1031F00001D9254845602448406800904FF480403C
:10320000ADF80C000020ADF80400ADF80800ADF8F2
:103210000A004BF6FF70ADF8060023E01C4884421C
:1032200020D11848006840F4000016490860304674
:10323000FFF772FF14488068A84201D912488560E0
:103240001148806800904FF48040ADF80C000020D9
:10325000ADF80400ADF80800ADF80A004BF6FF70B9
:10326000ADF80600208820F0010020806946204645
:10327000FEF720F9208840F0010020807FBD00008B
:103280000054004040380240300100200058004007
:10329000005C0040704770B504460D4600260123CF
:1032A00000222946204600F07BF800B9012620467E
:1032B00000F0CEF8304670BD70B50446208840F46A
:1032C0008060208044F620600A49086007E00948D1
:1032D0000068401E0749086008B9012070BD064912
:1032E0002046FEF75FF80028F1D0208AC5B22846B4
:1032F000F4E700002C010020400003002DE9F04716
:103300008046894616461D46089F012300224946ED
:10331000404600F045F83146404600F0D3F801231E
:103320001A464946404600F03BF800240DE0781E5E
:10333000A04204D1404600F00DF8285503E0404675
:10334000FFF7BAFF2855601CC4B2BC42EFDBBDE8F2
:10335000F087000070B50446208820F4806020804B
:10336000208840F40070208044F620600A490860FC
:1033700007E009480068401E0749086008B90120B5
:1033800070BD06492046FEF70DF80028F1D0208ACE
:10339000C5B22846F4E700002C01002040000300DD
:1033A0002DE9F04104460D4616461F46208840F49C
:1033B0008070208044F620602349086008E022489D
:1033C0000068401E2049086010B90120BDE8F08166
:1033D000A08A00F001000028F1D01FB1208840F43D
:1033E00080602080A6B925F00100208244F620608C
:1033F0001549086007E014480068401E124908603B
:1034000008B90120E2E7A08A00F002000028F2D00B
:10341000012E15D145F00100208244F620600A49B2
:10342000086007E008480068401E0749086008B9BE
:103430000120CBE705492046FDF7B4FF0028F1D075
:10344000208B0020C2E700002C01002002000300B6
:10345000014644F620600D4A106007E00B48006802
:10346000401E0A4A106008B901207047888A00F09F
:1034700080000028F2D0888A00F004000028EDD0F7
:10348000088840F4007008800020EEE72C0100203E
:103490002DE9F04106460F4614461D4600231A4604
:1034A00039463046FFF77CFF2146304600F00AF8E7
:1034B0002946304600F006F83046FFF7C9FFBDE860
:1034C000F081000044F62062084B1A6004E0074ACD
:1034D0001268521E054B1A60828A02F080021AB9E5
:1034E000024A1268002AF2D1018270472C010020A2
:1034F0002DE9F0470746884615461E46DDF8209020
:1035000000231A4641463846FFF74AFF2946384607
:10351000FFF7D8FF002405E0315D3846FFF7D2FF02
:10352000601CC4B24C45F7DB3846FFF791FFBDE89D
:10353000F08700001CB501210846FEF763FD01225B
:1035400005210A48FDF754FE2020009000208DF848
:1035500006008DF8070002208DF8040003208DF886
:10356000050069460148FDF7FBFD1CBD0000024057
:103570007CB506460D4602208DF8040000208DF82B
:1035800006008DF8070003208DF8050056BB15B125
:10359000012D23D111E001210220FEF733FD03228A
:1035A00008211348FDF724FE4FF48070009069460F
:1035B0000F48FDF7D5FD002412E001212020FEF781
:1035C00021FD032206210B48FDF712FE402000904A
:1035D00069460848FDF7C4FD002401E0062400BF49
:1035E00000BF01E0052400BF00BF20467CBD0000F5
:1035F00000040240001402407CB506460D4602203D
:103600008DF8040000208DF806008DF807000320D7
:103610008DF8050056BB15B1012D23D111E0012114
:103620000220FEF7EFFC032209211348FDF7E0FD1D
:103630004FF40070009069460F48FDF791FD00249B
:1036400012E001212020FEF7DDFC032207210B48B8
:10365000FDF7CEFD8020009069460848FDF780FD0B
:10366000002401E0062400BF00BF01E0052400BFE4
:1036700000BF20467CBD0000000402400014024050
:103680007CB506460D4602208DF8040000208DF81A
:1036900006008DF8070003208DF8050016B1012EF5
:1036A00057D12AE015B1012D23D111E001210220CB
:1036B000FEF7A8FC09220E212848FDF799FD4FF4DA
:1036C0008040009069462548FDF74AFD002412E03D
:1036D00001218020FEF796FC092206212048FDF7F3
:1036E00087FD4020009069461D48FDF739FD002404
:1036F00001E0062400BF00BF2DE015B1012D24D14B
:1037000011E001210220FEF77DFC09220F21134860
:10371000FDF76EFD4FF40040009069460F48FDF73D
:103720001FFD002413E001218020FEF76BFC09221D
:1037300011460B48FDF75CFD4FF4007000906946A0
:103740000748FDF70DFD002401E0062400BF00BF7F
:1037500001E0052400BF00BF20467CBD00040240FC
:10376000001C02407CB506460D4602208DF8040080
:1037700000208DF806008DF8070003208DF8050065
:1037800056BB15B1012D23D110E001210846FEF7EB
:1037900039FC092206211348FDF72AFD402000903C
:1037A00069461048FDF7DCFC002413E001212020CD
:1037B000FEF728FC092208210B48FDF719FD4FF4FC
:1037C0008070009069460848FDF7CAFC002401E0BB
:1037D000062400BF00BF01E0052400BF00BF204653
:1037E0007CBD000000000240001402407CB506468B
:1037F0000D4602208DF8040000208DF806008DF89B
:10380000070003208DF8050056BB15B1012D23D10B
:1038100010E001210846FEF7F5FB092207211348B5
:10382000FDF7E6FC8020009069461048FDF798FC03
:10383000002413E001212020FEF7E4FB09221146B9
:103840000B48FDF7D5FC4FF400700090694608481E
:10385000FDF786FC002401E0062400BF00BF01E064
:10386000052400BF00BF20467CBD000000000240D0
:10387000001402407CB506460D4602208DF8040077
:1038800000208DF806008DF8070003208DF8050054
:1038900036B1012E30D0022E5AD0032E7DD185E0D4
:1038A00015B1012D24D111E001210846FEF7AAFB34
:1038B000012208215648FDF79BFC4FF480700090D0
:1038C00069465348FDF74CFC002413E00121102009
:1038D000FEF798FB012209214E48FDF789FC4FF4C1
:1038E0000070009069464B48FDF73AFC002401E067
:1038F000062400BF00BF87E015B1012D24D111E0DF
:1039000001210846FEF77EFB012209214048FDF710
:103910006FFC4FF40070009069463D48FDF720FCB5
:10392000002413E001211020FEF76CFB01220A2184
:103930003848FDF75DFC4FF48060009069463548DB
:10394000FDF70EFC002401E0062400BF00BF5BE091
:1039500015B1012D26D111E001210846FEF752FBD9
:1039600001220A212A48FDF743FC4FF480600090B1
:1039700069462748FDF7F4FB002415E001211020DB
:10398000FEF740FB01220D212248FDF731FC4FF4E8
:103990000050009069461F4800E033E0FDF7E0FB6F
:1039A000002401E0062400BF00BF2DE015B1012D69
:1039B00024D111E001210846FEF724FB01220B214E
:1039C0001348FDF715FC4FF400600090694610485D
:1039D000FDF7C6FB002413E001211020FEF712FBC7
:1039E00001220E210B48FDF703FC4FF480400090AC
:1039F00069460848FDF7B4FB002401E0062400BF37
:103A000000BF01E0052400BF00BF20467CBD0000D0
:103A100000000240001002407CB506460D46022020
:103A20008DF8040000208DF806008DF807000320B3
:103A30008DF8050036B1012E42D0022E6AD0032E39
:103A40007DD193E025B1012D13D0022D34D121E099
:103A500001210846FEF7D6FA012200215B48FDF756
:103A6000C7FB0120009069465848FDF779FB002408
:103A700024E001210846FEF7C5FA0122052153483A
:103A8000FDF7B6FB2020009069465048FDF768FB23
:103A9000002413E001210846FEF7B4FA01220F21A9
:103AA0004A48FDF7A5FB4FF400400090694647489F
:103AB000FDF756FB002401E0062400BF00BF82E0B2
:103AC00015B1012D22D110E001210846FEF79AFA26
:103AD000012211463D48FDF78BFB0220009069460C
:103AE0003A48FDF73DFB002412E001210220FEF7D9
:103AF00089FA012203213648FDF77AFB082000905D
:103B000069463348FDF72CFB002401E0062400BF82
:103B100000BF58E015B1012D24D111E00121084664
:103B2000FEF770FA012202212848FDF761FB04200C
:103B3000009069462548FDF713FB002414E040E09F
:103B400001210220FEF75EFA01220A212048FDF73A
:103B50004FFB4FF48060009069461D48FDF700FB65
:103B6000002401E0062400BF00BF2CE015B1012DA8
:103B700023D110E001210846FEF744FA0122032177
:103B80001248FDF735FB0820009069460F48FDF705
:103B9000E7FA002413E001210220FEF733FA0122A4
:103BA0000B210B48FDF724FB4FF4006000906946A1
:103BB0000748FDF7D5FA002401E0062400BF00BF46
:103BC00001E0052400BF00BF20467CBD000002408C
:103BD000000402407CB506460D4602208DF8040024
:103BE00000208DF806008DF8070003208DF80500F1
:103BF00036B1012E41D0022E7ED0032E77D1A6E021
:103C000025B1012D13D0022D33D121E00121084629
:103C1000FEF7F8F9022206216548FDF7E9FA40208F
:103C2000009069466248FDF79BFA002423E00121D9
:103C30000220FEF7E7F9022204215E48FDF7D8FAD8
:103C40001020009069465B48FDF78AFA002412E0D4
:103C500001210420FEF7D6F9022206215648FDF77D
:103C6000C7FA4020009069465348FDF779FA0024CE
:103C700001E0062400BF00BF96E025B1012D13D05E
:103C8000022D35D121E001210846FEF7BBF90222C1
:103C900007214748FDF7ACFA802000906946444868
:103CA000FDF75EFA002425E001210220FEF7AAF9C3
:103CB000022205213F48FDF79BFA2020009069462B
:103CC0003C48FDF74DFA002414E001210420FEF7E2
:103CD00099F9022207213848FDF78AFA80200090DE
:103CE00069463548FDF73CFA002403E004E059E05A
:103CF000062400BF00BF57E015B1012D23D110E00D
:103D000001210220FEF77EF9022200212948FDF759
:103D10006FFA0120009069462648FDF721FA002439
:103D200013E001210420FEF76DF902220821224848
:103D3000FDF75EFA4FF48070009069461E48FDF76B
:103D40000FFA002401E0062400BF00BF2CE015B1EB
:103D5000012D23D110E001210220FEF753F90222A8
:103D600001211448FDF744FA0220009069461148E9
:103D7000FDF7F6F9002413E001210420FEF742F9D3
:103D8000022209210C48FDF733FA4FF4007000902D
:103D900069460948FDF7E4F9002401E0062400BF64
:103DA00000BF01E0052400BF00BF20467CBD00002D
:103DB0000000024000040240000802407CB50646B4
:103DC0000D4602208DF8040000208DF806008DF8C5
:103DD000070003208DF8050036B1012E2FD0022EEA
:103DE00058D0032E7ED182E015B1012D23D110E0F1
:103DF00001210220FEF706F9022206215448FDF7B0
:103E0000F7F94020009069465148FDF7A9F90024D0
:103E100013E001210820FEF7F5F802220C214D489D
:103E2000FDF7E6F94FF48050009069464948FDF7E8
:103E300097F9002401E0062400BF00BF85E015B11A
:103E4000012D23D110E001210220FEF7DBF8022230
:103E500007213F48FDF7CCF98020009069463C4897
:103E6000FDF77EF9002413E001210820FEF7CAF8CF
:103E700002220D213748FDF7BBF94FF400500090A6
:103E800069463448FDF76CF9002401E0062400BFC0
:103E900000BF5AE015B1012D25D111E0012102200A
:103EA000FEF7B0F8022208212948FDF7A1F94FF4E6
:103EB0008070009069462648FDF752F9002414E00E
:103EC00001210820FEF79EF802220E212148FDF76D
:103ED0008FF94FF48040009069461E48FDF740F985
:103EE000002402E02FE0062400BF00BF2DE015B142
:103EF000012D24D111E001210220FEF783F80222D6
:103F000009211348FDF774F94FF4007000906946D9
:103F10000F48FDF725F9002413E001210820FEF7E2
:103F200071F802220F210B48FDF762F94FF40040AF
:103F3000009069460748FDF713F9002401E00624C4
:103F400000BF00BF01E0052400BF00BF20467CBDCC
:103F500000040240000C02407CB506460D460220DB
:103F60008DF8040000208DF806008DF8070003206E
:103F70008DF8050036B1012E2FD0022E58D0032E19
:103F80007DD181E015B1012D23D110E0012108463A
:103F9000FEF738F8022200215348FDF729F90120E5
:103FA000009069465048FDF7DBF8002413E001213A
:103FB0008020FEF727F802220A214C48FDF718F965
:103FC0004FF48060009069464848FDF7C9F8002426
:103FD00001E0062400BF00BF82E015B1012D23D10E
:103FE00010E001210846FEF70DF8022201213E48AB
:103FF000FDF7FEF80220009069463B48FDF7B0F857
:10400000002413E001218020FDF7FCFF02220B2198
:104010003648FDF7EDF84FF40060009069463348EC
:10402000FDF79EF8002401E0062400BF00BF57E022
:1040300015B1012D24D110E001210846FDF7E2FF62
:10404000022211462848FDF7D3F804200090694663
:104050002548FDF785F8002414E001218020FDF7B4
:10406000D1FF02220C212148FDF7C2F84FF4805005
:10407000009069461D48FDF773F8002402E02DE02A
:10408000062400BF00BF2BE015B1012D22D110E0A6
:1040900001210846FDF7B6FF022203211248FDF771
:1040A000A7F80820009069460F48FDF759F800244A
:1040B00012E001210802FDF7A5FF022200210C48B1
:1040C000FDF796F80120009069460948FDF748F889
:1040D000002401E0062400BF00BF01E0052400BF6A
:1040E00000BF20467CBD000000000240001C0240D2
:1040F000002002407CB506460D4602208DF80400E3
:1041000000208DF806008DF8070003208DF80500CB
:1041100036B1012E2ED0022E56D0032E7BD17FE059
:1041200015B1012D22D110E001210420FDF76AFF15
:10413000032206215248FDF75BF8402000906946B3
:104140004F48FDF70DF8002412E001210802FDF7A9
:1041500059FF032205214B48FDF74AF82020009023
:1041600069464848FCF7FCFF002401E0062400BF34
:1041700000BF82E015B1012D22D110E00121042001
:10418000FDF740FF032207213D48FDF731F880206D
:10419000009069463A48FCF7E3FF002412E0012151
:1041A0000802FDF72FFF032206213648FDF720F80D
:1041B0004020009069463348FCF7D2FF002401E01C
:1041C000062400BF00BF58E015B1012D24D111E035
:1041D00001210420FDF716FF032208212848FDF7DE
:1041E00007F84FF48070009069462548FCF7B8FF47
:1041F000002413E001210802FDF704FF0322072138
:104200002048FCF7F5FF8020009069461D48FCF728
:10421000A7FF002402E02EE0062400BF00BF2CE030
:1042200015B1012D23D111E001210420FDF7EAFE93
:10423000032209211248FCF7DBFF4FF400700090C5
:1042400069460F48FCF78CFF002412E001210802A8
:10425000FDF7D8FE032202210A48FCF7C9FF04201B
:10426000009069460748FCF77BFF002401E0062424
:1042700000BF00BF01E0052400BF00BF20467CBD99
:1042800000080240002002407CB506460D46022090
:104290008DF8040000208DF806008DF8070003203B
:1042A0008DF8050016B1012E54D129E015B1012D6C
:1042B00022D110E001210846FDF7A4FE03220221CD
:1042C0002748FCF795FF0420009069462448FCF736
:1042D00047FF002412E001211020FDF793FE032286
:1042E00005212048FCF784FF2020009069461D48E6
:1042F000FCF736FF002401E0062400BF00BF2BE0DE
:1043000015B1012D22D110E001210846FDF77AFEFA
:10431000032211461248FCF76BFF08200090694603
:104320000F48FCF71DFF002412E001211020FDF7CB
:1043300069FE032206210B48FCF75AFF402000903B
:1043400069460848FCF70CFF002401E0062400BF82
:1043500000BF01E0052400BF00BF20467CBD000077
:10436000000002400010024000B585B07020ADF89A
:1043700000000120ADF802000220ADF80C0040F66C
:104380003300029069461548FEF784F80821134867
:10439000FEF7BEF841F26700029069460F48FEF74B
:1043A000C1F808210D48FEF70FF941F69B00029075
:1043B00069460A48FEF716F908210848FEF762F92F
:1043C00042F2CF00029069460448FEF765F90821E1
:1043D0000248FEF79DF905B000BD0000000800404E
:1043E00070B504460D4616463048844204D1314625
:1043F0002846FFF73FFA70BDB4F1804F04D1314633
:104400002846FFF709FBF6E72948844204D13146E4
:104410002846FFF7DFFBEEE72648844204D1314609
:104420002846FFF7CBFCE6E72348844204D1314617
:104430002846FFF791FDDEE72048844204D131464B
:104440002846FFF757FED6E71D48844204D131467F
:104450002846FFF719FFCEE71A48844204D13146B7
:104460002846FFF785F8C6E71748844204D131464D
:104470002846FFF7C1F8BEE71448844204D131460C
:104480002846FFF7FDF8B6E71148844204D13146CB
:104490002846FFF767F9AEE70E48844204D131465B
:1044A0002846FFF7A3F9A6E70420A4E7000001408F
:1044B0000004004000080040000C004000040140DF
:1044C0000040014000440140004801400018004005
:1044D000001C00400020004030B52DED048B89B059
:1044E00005460C46B0EE408AF0EE608A31488542BF
:1044F00002D03148854204D1042009B0BDEC048BC0
:1045000030BD6946284600F021FA0098FBF7FFFF0E
:1045100041EC190B53EC182BFCF732F801D20120B7
:10452000EBE79FED260B53EC102B51EC180BFCF72F
:1045300027F801D10220E0E7B0EE480AF0EE680A61
:10454000684600F099F9039808B90120D5E751ECC5
:10455000180BFBF7E9FFA06053EC182B9FED190B2C
:1045600051EC100BFBF753FF41EC190BFBF7DCFF91
:10457000E0600398206004986060284600F0CCF862
:104580000498401E80B2ADF818000020ADF81A0063
:104590000398401E07900020ADF820008DF82200FF
:1045A00006A92846FEF7C2F801212846FDF766FF56
:1045B0000020A2E7001000400014004000000000AE
:1045C000000000000000000080842E41F0B585B09E
:1045D00007460D4616461C462868401EA04202D2D9
:1045E000032005B0F0BD02947020ADF8000001205A
:1045F000ADF802000220ADF80C0036B1012E0DD04E
:10460000022E14D0032E24D11AE069463846FDF755
:1046100041FF08213846FDF77BFF1BE0694638461D
:10462000FDF780FF08213846FDF7CEFF12E069460E
:104630003846FDF7D7FF08213846FEF723F809E092
:1046400069463846FEF728F808213846FEF760F834
:1046500000E000BF00BF0020C3E700002DE9F041EB
:104660002DED028B05460C461646B0EE408A9FEDB6
:10467000190AB4EEC08AF1EE10FA09DD324621467D
:1046800028462368FFF7A2FFBDEC028BBDE8F0814E
:10469000B5EEC08AF1EE10FA06D800233246214664
:1046A0002846FFF793FFEFE72068401E00EE100A50
:1046B000B8EE400A20EE080ABCEEC00A10EE100A5E
:1046C0006421B0FBF1F73B46324621462846FFF70E
:1046D0007DFFD9E70000C8427047704770470EB5AC
:1046E00001210846FDF7AEFC0020ADF80000ADF852
:1046F000020042F2CF0001900020ADF808008DF8D2
:104700000A0069464FF08040FEF710F80121880743
:10471000FDF7B4FE0EBD000001464948814205D1B7
:104720004848006840F00100464A1060B1F1804FEF
:1047300007D14448001F006840F00100414A121FA1
:1047400010604148814207D13E48001F006840F098
:1047500002003C4A121F10603C48814207D1394890
:10476000001F006840F00400364A121F10603848ED
:10477000814207D13348001F006840F00800314AE9
:10478000121F10603348814207D12E48001F006875
:1047900040F010002B4A121F10602F48814207D1B1
:1047A0002848001F006840F02000264A121F1060B1
:1047B0002A48814205D12348006840F00200214A7E
:1047C00010602748814205D11E48006840F48030BF
:1047D0001C4A10602348814205D11A48006840F401
:1047E0000030184A10602048814205D11548006801
:1047F00040F48020134A10601C48814207D11148C0
:10480000001F006840F040000E4A121F1060184858
:10481000814207D10B48001F006840F08000094A20
:10482000121F10601348814207D10648001F00681C
:1048300040F48070034A121F10600020704700008F
:1048400000000140443802400004004000080040DD
:10485000000C004000100040001400400004014023
:104860000040014000440140004801400018004061
:10487000001C00400020004010B52DED068B0446C2
:10488000B0EE408AF0EE608A2068FBF740FE41EC13
:10489000190B53EC182BFBF773FE07D20020206195
:1048A000E06060610320BDEC068B10BD9FED250B21
:1048B00053EC102B51EC180BFBF762FE05D10020D6
:1048C0002061E06060610420EDE76068B0F5803F42
:1048D00002D26068401C60600020206100BF206937
:1048E000401C2168B1FBF0F0E060E068FBF70FFED0
:1048F00041EC1A0B53EC182BFBF789FD41EC190B1B
:10490000FBF712FEE0602069401C20616168E068EE
:10491000884204D9A068401C21698142DFD9A0687F
:10492000401C2169814205D900202061E06060615E
:104930000420B8E751EC180BFBF7F6FD606100208E
:10494000B1E7000000000000000000007FB5044651
:104950000D466846FDF7A6FB4FF6FF70A860B4F160
:10496000804F02D01F48844207D1039828604FF03F
:10497000FF306860002004B070BD1B4884420BD03B
:104980001A48844208D01A48844205D01948844203
:1049900002D01948844206D1019828604FF6FF7072
:1049A00068600020E7E71548844211D0144884422B
:1049B0000ED0144884420BD01348844208D01348C8
:1049C000844205D01248844202D01248844206D163
:1049D000039828604FF6FF7068600020CBE7022044
:1049E000C9E70000000C0040000001400004014045
:1049F00000400140004401400048014000040040E4
:104A00000008004000100040001400400018004062
:104A1000001C0040002000401CB5044644B908209A
:104A2000032101230022CDE900100B48FEF7D4FA40
:104A3000012C09D10820032101230022CDE9001017
:104A400089020648FEF7C8FA032C03D1082104485E
:104A500000F0F8FA1CBD000000000240000802400F
:104A6000004C00401CB504469CB9082003210123DA
:104A70000022CDE9001041020948FEF7ADFA0820F6
:104A8000032101230022CDE9001004210548FEF78F
:104A9000A3FA032C03D10821034800F0D3FA1CBD6C
:104AA00000080240000C0240005000401CB50446C3
:104AB0004CB90720032101230022CDE9001049024F
:104AC0000A48FEF789FA012C09D1072003210123A6
:104AD0000022CDE90010C0210548FEF77DFA032C25
:104AE00003D10721034800F0ADFA1CBD00000240CD
:104AF00000040240001001401CB504464CB90720D8
:104B0000032101230022CDE900100C210A48FEF701
:104B100063FA012C09D10720032101230022CDE9EA
:104B2000001060210548FEF757FA032C03D1072136
:104B3000034800F087FA1CBD00000240000C024050
:104B4000004400401CB504464CB907200321012352
:104B50000022CDE9001089021048FEF73DFA012C31
:104B600009D10720032101230022CDE90010890289
:104B70000B48FEF731FA022C09D10720032101234B
:104B80000022CDE9001009020648FEF725FA032CA1
:104B900003D10721044800F055FA1CBD000402406F
:104BA00000080240000C0240004800401CB50446CA
:104BB0004CB90820032101230022CDE90010C021B7
:104BC0000B48FEF709FA012C0AD108200321012322
:104BD0000022CDE900104FF484410648FEF7FCF9AD
:104BE000032C03D10821044800F02CFA1CBD00005E
:104BF00000080240001802400014014010B50446AD
:104C0000204600F0A9F80346D88828B918895989A0
:104C1000884201D1012010BD0020FCE710B50446F8
:104C2000204600F099F803460020D880188158816A
:104C300010BDF0B507460D46384600F08DF8034626
:104C4000DE885C890DE09888A04200D100241868B5
:104C5000005DA84201D10120F0BD601C84B2701E2D
:104C600086B2002EEFDC0020F6E730B504460025C2
:104C7000204600F071F80346D888002803DC188924
:104C80005989884211D058899988884201D10020D9
:104C9000588159891868405C45B25889401C588130
:104CA000D88810B1D888401ED880E8B230BD2DE930
:104CB000F04180460E4617460024404600F04CF86E
:104CC0000546E88840B1697B4046FFF7B2FF30B93E
:104CD000E888A988884202D00020BDE8F0810AE077
:104CE0004046FFF7C2FF3055305D697B884200D1F6
:104CF00004E0601C84B2781EA042F1DC00BF0021F9
:104D0000601C80B2044631542046E6E701460C4A56
:104D1000914200D100200B4A914200D101200A4A61
:104D2000914200D10220094A914200D10420084A50
:104D3000914200D10520074A914200D106207047D8
:104D4000001001400044004000480040004C00407A
:104D5000005000400014014001460C4A914200D12D
:104D60000B480C4A914200D10B480C4A914200D1A9
:104D70000B480C4A914200D10B480C4A914200D199
:104D80000B480C4A914200D10B487047001001407B
:104D90005001002000440040600100200048004015
:104DA00070010020004C00408001002000500040B5
:104DB0009001002000140140A00100202DE9F04FD7
:104DC00087B004460D4616461F46DDE911ABDDF8F7
:104DD00040902046FFF7C0FF804603965248844229
:104DE0000BD15248006840F0100050490860284636
:104DF000FFF75CFE25208DF808004D4884420DD158
:104E00004A48001F006840F400304849091F086004
:104E10002846FFF771FE26208DF808004548844299
:104E20000DD14248001F006840F480203F49091F0F
:104E300008602846FFF786FE27208DF808003E48C8
:104E400084420DD13948001F006840F400203749E2
:104E5000091F08602846FFF7DFFD34208DF80800A1
:104E6000364884420DD13148001F006840F480105C
:104E70002E49091F08602846FFF7F4FD35208DF8FC
:104E800008002F4884420BD12848006840F02000D9
:104E9000264908602846FFF789FE47208DF808005C
:104EA000204600F045F901208DF80B0006208DF812
:104EB00009002046FFF72AFF8DF80A0002A8FDF737
:104EC0004FF8ADF818701FFA89F0ADF816001FFA08
:104ED0008AF0ADF814001FFA8BF0ADF812001398A9
:104EE00080B2ADF81000002088F80C0000BF40F63A
:104EF000FF70019000BF0198411E01910028FAD176
:104F000000BF03A9204600F08BF9A08940F02000E3
:104F1000A081012088F80C00A08940F40050A081F5
:104F200007B0BDE8F08F0000001001404438024097
:104F30000044004000480040004C00400050004049
:104F400000140140C28883889A420EDA028983885D
:104F50009A4201D10022028103890268D154028958
:104F6000521C0281C288521CC28070477FB5044621
:104F70000D4616462D4884420BD100200C23CDE966
:104F80000030029003463246294603902046FFF740
:104F900015FF274884420BD100200C23CDE90030B7
:104FA000029003463246294603902046FFF706FF4B
:104FB000204884420BD100200C23CDE90030029020
:104FC00003463246294603902046FFF7F7FE1A486B
:104FD00084420BD100200C23CDE90030029003461F
:104FE0003246294603902046FFF7E8FE13488442E4
:104FF0000BD100200C23CDE900300290034632464D
:10500000294603902046FFF7D9FE0D4884420BD174
:1050100000200C23CDE90030029003463246294699
:1050200003902046FFF7CAFE7FBD0000001001403C
:105030000044004000480040004C00400050004048
:1050400000140140704730B504460B462046FFF778
:1050500083FE05466B7330BD00B50648008800F03E
:10506000200030B10348001D0088C1B20248FFF79C
:1050700069FF00BD004C00408001002000B50648DB
:10508000008800F0200028B103488088C1B203489E
:10509000FFF758FF00BD00000050004090010020C5
:1050A00000B50648008800F0200028B10348808839
:1050B000C1B20348FFF746FF00BD000000100140E9
:1050C0005001002000B50648008800F0200030B1F3
:1050D0000348001D0088C1B20248FFF733FF00BD3E
:1050E000004400406001002000B50648008800F040
:1050F000200030B10348001D0088C1B20248FFF70C
:1051000021FF00BD004800407001002000B50648A6
:10511000008800F0200030B10348001D0088C1B2B3
:105120000248FFF70FFF00BD00140140A00100205E
:1051300010B504463248844208D101211020FCF702
:10514000A1FF00211020FCF79DFF57E02D4884426D
:1051500009D101214804FCF785FF00214FF40030FC
:10516000FCF780FF4AE02848844209D101218804E5
:10517000FCF778FF00214FF48020FCF773FF3DE03F
:105180002248844209D10121C804FCF76BFF0021A9
:105190004FF40020FCF766FF30E01D48844209D13F
:1051A00001210805FCF75EFF00214FF48010FCF799
:1051B00059FF23E01748844208D101212020FCF741
:1051C00061FF00212020FCF75DFF17E012488442B8
:1051D00009D101218807FCF745FF00214FF08040ED
:1051E000FCF740FF0AE00D48844207D10121400549
:1051F000FCF738FF00216005FCF734FF10BD00000C
:10520000001001400044004000480040004C0040B5
:10521000005000400014014000780040007C004035
:105220002DE9FF4705460E460024A14600BFA046D3
:10523000B08900B100BF2C8A24F44054F0880443A4
:105240002C82AC8941F20C608443B08831890843D8
:10525000718908430443AC81AC8A24F44074B0895A
:105260000443AC826846FCF71DFF2048854202D00B
:105270001F48854202D1DDF80C9001E0DDF808906E
:10528000A88900F4004040B109EBC90000EB091007
:1052900031684900B0FBF1F707E009EBC90000EB0A
:1052A000091031688900B0FBF1F76420B7FBF0F01A
:1052B00004012009642101FB1078A88900F4004052
:1052C00040B1322000EBC800B0FBF1F000F0070065
:1052D000044308E0322000EB08106421B0FBF1F039
:1052E00000F00F0004432C81BDE8FF87001001404F
:1052F0000014014000BFFEE70FB4084B10B504A92D
:1053000002AA039800F0F8FF044602A9002001F069
:105310008AFB204610BC5DF814FB0000276A0008D9
:1053200003B401984100009850EAC12018BF04203E
:105330004A0D18BF40F0010040F2FF72B2EB515F1E
:1053400008BF40F00200012808BF052002B07047E6
:1053500000487047300200202DE9F04D2DED040B80
:105360002DED0E8B96B0DDE92550279CDDF890A041
:1053700025F0004624F00048BAF1000F14BF0121C7
:10538000002101EB4502FC4953184A1093422AD3ED
:10539000002814BF0123002303EB44030B44F74907
:1053A0008B4220D358EA00019FEDF59B76D0DFF8C1
:1053B000D8B35D4503D1BAF1000F05D188E0BAF149
:1053C000000F08BF002100D0012101EB450111F5BC
:1053D000001F08D8002814BF0121002101EB44015F
:1053E00011F5001F0BD99DED261B9DED240B16B06A
:1053F000BDEC0E8B04B0BDE8F04D00F069BE002797
:10540000002DBCBFE149884521DAE1498845A8BFA4
:1054100002271CDAC3451ADCDE4901EB28511429A6
:1054200008DDC1F1340220FA02F101FA02F28242EF
:105430000DD108E058B9C1F1140228FA02F101FABD
:1054400002F2424503D101F00101C1F1020756EA1F
:105450000A0124D1002C22DA002D18BF022F01D01E
:10546000012F0AD0022000F07FFE16B0BDEC0E8B9B
:1054700004B0BDE8F04D00F013BE022000F074FE51
:1054800000F00EFE51EC100B81F0004141EC100BCE
:1054900016B0BDEC0E8B04B0BDE8F08D18E09FEDAA
:1054A000BEAB9FEDBF8B002871D1B848804522D19B
:1054B00005F1804010F5801008BFBAF1000F07D049
:1054C000B3450ADC002CA8BF9DED260BE0DA0DE009
:1054D000B0EE490AF0EE690ADAE7002C06DA9DED33
:1054E000260B51EC100B81F000416FE0AE48784480
:1054F00090ED000BCCE7D8454DD1002C48DA2EB109
:1055000086423AD1BAF1000F42D126E0BAF1000F3B
:1055100013D0022000F028FE00F0F6FD8DED020B06
:105520009DED240B8DED000B10EE900A039961F3B5
:105530001E0003909DED020BAAE78DED02AB9DEDE1
:10554000240B1AEE901A10EE900A8DED000B61F309
:105550001E0003909DED020B9AE78DED028B9DEDF1
:10556000240B18EE901A10EE900A8DED000B61F3EB
:105570001E0003909DED020B8AE709DA9DED240BD6
:1055800051EC190B53EC102BFAF741FF1EE020E011
:105590009DED240B7CE786421BDAB4F1804F0DD0E1
:1055A000A4F10050B0F1FF5013D1002D11DB9DED9F
:1055B000240B51EC100B02F083FA07E09DED240B55
:1055C00053EC102B51EC100B00F0C2BC41EC100B53
:1055D0005EE79DED240B51EC100B01F0A3FABAF13C
:1055E000000FCDE90E0142D19FED710B46B3A6F13C
:1055F000E040B0F17F600CD05E4538D1002D00DA7C
:10560000A7B3022F0CBF01204FF0FF30FAF76EFF57
:10561000DCE7002D01DD002C0DDA002D01DD002C72
:105620001FDB002D16DA002C14DB012F08BF9FEDC5
:10563000620B3FF42DAFB0EE4A0AF0EE6A0A27E79C
:10564000022F18BF002D0CD0012F0AD1002DFFF61C
:105650001FAF06E0002DB8BF002C08DA012F3FF481
:1056600017AFB0EE480AF0EE680A11E71BE0012020
:1056700000EBE57050EA070115D0791EB0EE498ABB
:10568000F0EE698A084308BF9FED4D8B4E48002518
:10569000804570DD4D494E48884514DDB0420DDB34
:1056A000002C19DB2FE0012000F05EFD16B0BDECF0
:1056B0000E8B04B0BDE8F04D00F016BDB34502DC22
:1056C000002C09DC1FE0864202DA002C1BDA03E022
:1056D0005E452BDD002C16DD022000F045FD00F0BC
:1056E00013FD8DED020B53EC1A2B51EC180BFAF74E
:1056F0001CFECDE900010399019861F31E0003909F
:105700009DED020BC4E6022000F02EFD00F00CFD22
:1057100010EE901A18EE900A8DED020B8DED008BB5
:1057200061F31E0003909DED020BB1E69DED0E0BA3
:1057300053EC192B51EC100BFBF732F99FED260BB4
:10574000CDE9080153EC102B9DED080B51EC100B2B
:10575000FAF7EBFD9FED221B53EC112BFBF723F91E
:105760009DED081B53EC112BFAF7DFFD9FED1E1B7F
:1057700053EC112B3CE08CE0FFFF1F00FFFF0F00FC
:10578000000000000000F03F0000F03F0000F07F4C
:105790000000404301FCFFFF000000000000F07F1C
:1057A0000000000000000000766000000000000023
:1057B0000000000000000080000000000000F0FF7A
:1057C000000000000000F0BF0000E0410000F043D6
:1057D000FFFFEF3F00000000000000000000D03F8E
:1057E000555555555555D53F000000000000E03F88
:1057F000FBF7D9F89DED080B41EC1A0B53EC102B7D
:1058000051EC100BFAF791FD53EC1A2BFAF78DFDC2
:1058100041EC1A0B9FEDFE0B53EC102B9DED080B8A
:1058200051EC100BFAF781FD41EC1B0B9FEDFA0BCD
:1058300051EC1A0B53EC102BFAF777FD41EC1A0BD5
:105840009FEDF70B53EC102B9DED080B51EC100B5B
:10585000FAF76BFD53EC1A2BFBF7A2F841EC1A0B8D
:1058600051EC1B0B53EC1A2BFAF7F9FF0690CDE91C
:1058700006519DED060B53EC1B2B51EC100BFBF767
:105880008FF853EC1A2BFBF78EF841EC100B00F05D
:10589000A1B90020B6F5801F0EDA9FEDE30B53ECA3
:1058A000102B9DED0E0B51EC100BFAF73EFDCDE9E0
:1058B0000E016FF034000E4600EB2650A0F2FF37C9
:1058C000C6F31300DA4940F07F6646F0405688423E
:1058D000D8BF002408DDD7498142C8BF012403DCBA
:1058E0000024A6F580167F1CD348784400EBC40042
:1058F0000F9690ED00CB9DED0E0B53EC1C2B51EC55
:10590000100BFBF74DF89DED0E0B41EC1B0B53EC10
:105910001C2B51EC100BFAF7A2FF41EC100B51ECD1
:10592000190B53EC102BFAF772FD41EC1D0B51ECE7
:105930001B0B53EC1D2BFAF7F8FC41EC1A0BBF487C
:105940008DED10AB7844109590ED000B4FF00050AA
:1059500040EA660000EB84408DED080B00F5002066
:1059600009909DED080B53EC1C2B51EC100BFBF731
:1059700017F89DED0E1B53EC112BFBF714F841ECBF
:10598000100B53EC102B9DED100B51EC100BFAF794
:10599000CCFC9DED080B41EC1C0B53EC102B9DED4A
:1059A000100B51EC100BFAF7C0FC53EC1B2BFAF761
:1059B000FAFF53EC1C2BFAF7F3FF53EC1D2BFAF70D
:1059C000B4FC41EC1C0B53EC1A2B51EC1A0BFAF7FC
:1059D000ACFC41EC1B0B9A480621B0EE4B0AF0EEF2
:1059E0006B0A784400F0E0FAB0EE401AF0EE601A6C
:1059F000B0EE41DAF0EE61DA53EC1B2B51EC1B0BED
:105A0000FAF793FC53EC1D2BFAF78FFC9DED100B6E
:105A100041EC1B0B53EC1A2B51EC100BFAF71FFF48
:105A200053EC1C2BFAF781FC53EC1B2BFAF717FFF6
:105A30009DED100B41EC1B0B53EC102B51EC100B9C
:105A4000FAF773FC41EC1D0B9FED7FEB53EC1E2B23
:105A5000FAF705FF53EC1B2BFAF701FF0890CDE98D
:105A600008519DED080B53EC1E2B51EC100BFAF76F
:105A700097FF53EC1D2BFAF793FF53EC1B2BFAF710
:105A800092FF9DED080B41EC1D0B53EC102B9DED8F
:105A9000100B51EC100BFAF748FC41EC1B0B53ECCC
:105AA0001A2B51EC1D0BFAF740FC9DED080B41EC55
:105AB0001A0B53EC102B51EC1C0BFAF736FC53EC81
:105AC0001A2BFAF7CCFE41EC1A0B51EC1B0B53ECE2
:105AD0001A2BFAF7C4FE0C90CDE90C519DED0C0B7E
