:020000040800F2
:10000000A04301204D020008451F00083D130008D1
:10001000411F0008010E00087D420008000000009A
:100020000000000000000000000000009D0100082A
:10003000F90F000800000000E10100086923000832
:1000400067020008670200086702000855220008DE
:1000500067020008670200086702000867020008DC
:1000600067020008670200086702000867020008CC
:1000700067020008670200086702000867020008BC
:1000800067020008670200086702000867020008AC
:10009000670200086702000867020008670200089C
:1000A000670200086702000867020008670200088C
:1000B000F1230008670200086702000867020008D1
:1000C000670200086702000867020008670200086C
:1000D00067020008294000084D40000871400008F0
:1000E00067020008B92100086702000867020008DB
:1000F000670200086702000867020008670200083C
:10010000670200086702000867020008670200082B
:10011000E13F000805400008670200086702000888
:10012000670200086702000867020008670200080B
:1001300067020008670200086702000867020008FB
:1001400067020008670200086702000867020008EB
:10015000670200086702000867020008954000086F
:1001600067020008670200086702000867020008CB
:1001700067020008670200086702000867020008BB
:100180006702000867020008DFF80CD000F03EFCB0
:1001900000480047A1640008A0430120234B1968D0
:1001A0000868B0E8F04F80F309884FF0000080F352
:1001B000118870470000000003480068006880F361
:1001C000088862B600DF00BF08ED00E0DFF80C0031
:1001D000016841F470010160704700BF88ED00E0E4
:1001E000EFF30980114B1A681EF0100F08BF20EDC5
:1001F000108A20E9F04F106008B54FF0500080F3EE
:10020000118807F02BFA4FF0000080F31188BDE849
:10021000084019680868B0E8F04F1EF0100F08BFDA
:10022000B0EC108A80F30988704700BFB801002045
:10023000EFF311804FF0500181F31188704780F384
:1002400011887047EFF3058070470000064880472B
:1002500006480047FEE7FEE7FEE7FEE7FEE7FEE7AB
:10026000FEE7FEE7FEE7FEE78923000889010008B4
:1002700040EA01039B0703D009E008C9121F08C028
:10028000042AFAD203E011F8013B00F8013B521EA8
:10029000F9D27047D2B201E000F8012B491EFBD21F
:1002A00070470022F6E710B513460A460446194681
:1002B000FFF7F0FF204610BD034611F8012B00F8B0
:1002C000012B002AF9D118467047000070B50F4D78
:1002D00000B92868002412E00A4602E09E4203D0DA
:1002E000521C1378002BF9D1DAB2224305D02BB17E
:1002F00024B1002100F8011B04E00446401C0678EC
:10030000002EE9D12860204670BD00002C0200209C
:1003100070B5064603F0E0FF046805460A22002196
:10032000304600F0D0F92C6070BD2DE9FE4F81EA17
:10033000030404F0004421F0004100944FF0000B4E
:1003400023F0004350EA01045ED052EA03045BD07C
:10035000C3F30A54C1F30A552C44A4F2F3340194B4
:10036000A0FB0254C1F3130141F48011C3F3130342
:1003700043F4801301FB024400FB034E840A970AF6
:1003800044EA815447EA8357A4FB076802958D0A23
:1003900005FB07854FEA932C04FB0C542705029DAF
:1003A0004FEA065847EA1637B5EB08056EEB070C1F
:1003B000870E920E47EA811742EA8312A7FB0201D9
:1003C000B6EB0B0164EB00042B0D43EA0C335E1813
:1003D00044EB1C50DA465146E7FB0201C5F3130417
:1003E0004FEA0B3343EA14534FEA0432019C43EAC9
:1003F0000603A4F10C040294009CCDE900B400F0C3
:10040000E0F903B0BDE8F08F00200146F9E72DE9DF
:10041000F04D81EA030404F0004B21F0004514463E
:100420004FF0000A23F0004150EA050220D054EAC0
:1004300001021DD0C5F30A570246C5F31303C1F3E9
:100440001300C1F30A5640F4801543F48013A7EB60
:100450000608101BD64608F2FD3873EB050002D3E0
:1004600008F1010801E092185B41B8F1000F03DACE
:1004700000200146BDE8F08D00204FF480110646B3
:1004800084460EE0171B73EB050705D3121B63EBC5
:10049000050306434CEA010C49084FEA3000921864
:1004A0005B4150EA0107EDD152EA030012D082EA23
:1004B000040083EA0501084305D0101BAB4106D2B6
:1004C0000122002306E000224FF0004302E06FF01B
:1004D000010253101AEB06004CEB085110EB0A0016
:1004E00041EB0B01BDE8F04D00F05CB90EB5C10F5A
:1004F00080EAE0700844CA07002140F233438DE8E7
:100500000E000A460B4600F05CF903B000BD0EB5C4
:1005100040F2334102910021CDE900110A460B4619
:1005200000F04FF903B000BDC1F30A5210B5C1F39A
:10053000130140F2FF3341F480119A4201DA0020A6
:1005400010BD40F233439A42A2F2334203DC5242DE
:1005500000F0A9F810BD904010BD00F0004230F04E
:1005600000400AD0C10D01F56071C0F3160042EAE7
:100570000151C208400711437047002001467047EF
:1005800030B5041E71F1000404DB4FF0004440421A
:1005900064EB0101141E73F1000405DB1C464FF0EF
:1005A0000043524263EB04038B4208BF824230BDDA
:1005B00030B5041E71F1000404DB4FF000444042EA
:1005C00064EB0101141E73F1000405DB1C464FF0BF
:1005D0000043524263EB0403994208BF904230BD8E
:1005E00001F0004330B421F0004150EA010206D08E
:1005F0000A0DA2F56072C1F31301002A02DC30BCBF
:1006000000207047440F44EAC104C100E01830BC28
:1006100000EBC25000F08FB830B50B460146002009
:100620002022012409E021FA02F59D4205D303FAB4
:1006300002F5491B04FA02F52844151EA2F1010235
:10064000F1DC30BD2DE9F05F0546002092469B4667
:1006500088460646814640241BE0284641464746D8
:10066000224600F020F853465A46C01A914110D352
:1006700011461846224600F0DBF92D1A67EB0108F7
:100680004F4622460120002100F0D2F917EB000965
:100690004E41201EA4F10104DFDC484631462A46C3
:1006A0004346BDE8F09F202A04DB203A21FA02F0FD
:1006B0000021704721FA02F3D040C2F1200291409C
:1006C0000843194670472DE9F04791460F4680468A
:1006D0000446002614F8015B2DB100F0CBF9006848
:1006E000405DC007F6D12B2D02D02D2D18D0641EF1
:1006F0004A463946204600F0C1F927B13968A1427F
:1007000001D1C7F8008071054FF002040BD54042BB
:10071000002803DD03F0E0FD0460A007BDE8F087DA
:1007200046F48066E4E70028F8DA03F0D5FD0460BB
:100730006FF00040F2E70029A8BF7047401C490055
:1007400008BF20F00100704710B4B0FA80FC00FA36
:100750000CF050EA010404BF10BC704749B1CCF161
:10076000200421FA04F411FA0CF118BF01212143ED
:100770000843A3EB0C01CB1D4FEA00614FEA1020A8
:1007800042BF002010BC704700EBC350104400294A
:10079000A4BF10BC7047401C490008BF20F00100F6
:1007A00010BC704710B5141E73F1000408DA401C29
:1007B00041F1000192185B411A4301D120F0010080
:1007C00010BD2DE9F04D92469B4611B1B1FA81F270
:1007D00002E0B0FA80F22032904600F029F9044697
:1007E0000F4640EA0A0041EA0B0153465A460843C5
:1007F00013D0114653EA010019D0C8F14002504607
:10080000FFF751FF05460E4650465946424600F056
:100810000FF9084305D0012004E020463946BDE821
:10082000F08D0020054346EAE0762C4337430A98D2
:100830006305E40AA0EB08000022FD0A44EA4754DD
:100840000A3002D500200146E9E701051019694187
:10085000DDE9084500196941BDE8F04DA2E72DE941
:10086000FE4F804681EA0300C00F0C46009021F045
:10087000004123F00045B8EB0200A94105D24046F3
:10088000214690461C460B46024623F0004010438A
:1008900047D0270DC7F30A00C3F30A510290401A4C
:1008A000019040286BDAC3F3130040F4801B0098DA
:1008B000924620B10023D2EB030A63EB0B0B0198A5
:1008C0005946C0F14002504600F0B2F806460D46C7
:1008D00050465946019A00F0BAF810EB0800614101
:1008E000002487EA115284EAE7731A4340D0009A41
:1008F00062B3019A012A4FEA075215DC001B61EB33
:1009000002014FF0004202EA0752CDE90042001C0A
:1009100041F5801132462B46FFF753FF03B0BDE887
:10092000F08F40462146F9E7001B61EB0201001CF5
:1009300041F5801300185B412018A2F5001747EB22
:10094000030140EAD570B6196D4111E06D084FEA18
:10095000360645EAC0754FEA0752001B61EB0201FB
:10096000001C41F5801149084FEA3000001951413F
:1009700032462B4603B0BDE8F04FFFF713BF009897
:10098000012240000023D0EB020263EBE0730098E9
:1009900021464FEAE074B8EB000061EB0401E9E79F
:1009A00083F000435BE781F0004158E770B521F028
:1009B000004303430CD0C1F30A550024D5EB0405D2
:1009C00064EB0403D617AD1AB34102DB00200146E5
:1009D00070BD201841EB025170BDC1F30A52C1F342
:1009E000130140F2FF3341F480119A4202DA0020F1
:1009F0000146704740F233439A42A2F2334202DC8E
:100A00005242FFF750BE00F013B80000064C074DED
:100A100006E0E06840F0010394E8070098471034CE
:100A2000AC42F6D3FFF7B4FBBCAA0008DCAA00086E
:100A3000202A04DB203A00FA02F10020704791409E
:100A4000C2F1200320FA03F3194390407047202A93
:100A500006DBCB17203A41FA02F043EAE07306E0E6
:100A600041FA02F3D040C2F12002914008431946F6
:100A70007047000000487047ECA900082DE9F05FBE
:100A800082460078002715468B460AF10104B946D4
:100A9000302801D09DB113E014F8010B012778280C
:100AA00003D0582801D045B10AE00DB1102D07D16F
:100AB0000027102514F8010B02E0082500E00A25A4
:100AC0000026B0460EE005FB080005FB06F10127F5
:100AD00001EB10461FFA80F8B6F5803F00D3B94607
:100AE00014F8010B294600F069F80028EBDABBF195
:100AF000000F05D00FB1641E00E05446CBF8004053
:100B0000B9F1000F06D003F0E7FB02210160C81E17
:100B1000BDE8F09F48EA0640FAE72DE9F04D0023D2
:100B20001A461B1A8A4103DB00200146BDE8F08DFE
:100B3000C1F30A52C1F3130141F480154FF0000BC9
:100B4000D10702D100186D41521E0027044640F221
:100B5000FF11384601EB620A3E46804602460020FD
:100B60004FF48011FFF79FFDC2197141BB1846EB8E
:100B70000100B4EB030C75EB000C04D3E41A65EB35
:100B8000000517460E46241908F101006D41804604
:100B90003428E3DDF91946EB0600091BA84103D20E
:100BA0004FF0FF32134601E0002213461BEB070013
:100BB00046EB0A51BDE8F04DFFF7F4BD3A2800D2EC
:100BC000303820F02002412A01D3A2F137008842B8
:100BD00001D34FF0FF30704770B58C1810F8015BEF
:100BE00015F0070301D110F8013B2A1106D110F8C6
:100BF000012B03E010F8016B01F8016B5B1EF9D1CA
:100C00002B0705D40023521E0DD401F8013BFAE74F
:100C100010F8013BCB1A921C03E013F8015B01F8BA
:100C2000015B521EF9D5A142D8D3002070BD00004F
:100C30000021084A1168084A1140D0E900231A43EC
:100C400083681A43C3681A431143044AC2F8041361
:100C50007047000004230140E030FCFF0020014009
:100C600030B50246002000235068104C20400D791A
:100C70000C6844EA05242043506090680C4C2040E6
:100C8000D1E903542C438D682C434D7944EA450443
:100C900020439060D06A20F470000C7D641EE4B2A2
:100CA000234340EA0350D06230BD0000FFFEFFFC4A
:100CB000FDF7FFC0F0B504460D4600200021092DC8
:100CC00011DDE068A5F10A0606EB4607072606FADD
:100CD00007F18843A5F10A0606EB460603FA06F17A
:100CE0000843E0600CE0206905EB4507072606FA9B
:100CF00007F1884305EB450603FA06F10843206136
:100D0000072A0FDA606B561E06EB86071F2606FAC7
:100D100007F18843561E06EB860605FA06F10843DE
:100D2000606322E00D2A0FDA206BD61F06EB8607E0
:100D30001F2606FA07F18843D61F06EB860605FA3A
:100D400006F10843206310E0E06AA2F10D0606EB0D
:100D500086071F2606FA07F18843A2F10D0606EB67
:100D6000860605FA06F10843E062F0BD10B50123DE
:100D700000224621054802F01DFB1021034802F025
:100D8000ABFB024802F06EFB10BD000000540040B7
:100D900010B52DED048B002401231A46462114487A
:100DA00002F008FB124802F091FA1249087010484C
:100DB00002F0DAFA0F4948700D4802F053FB0D4972
:100DC00049780C4A127841EA0220FFF78FFB41EC88
:100DD000190B9FED090B53EC102BFFF718FB41EC9F
:100DE000180BFFF7A1FB84B22046BDEC048B10BDAD
:100DF0000054004020010020333333333333F33FBA
:100E000000BFFEE7FEB500200190029001F056FF02
:100E100001F0FCFE0121084601F00AF94FF4806060
:100E20006949086001200871032048710020887119
:100E3000C871664800F0BAF94FF48061634800F069
:100E40002BFA282000F0EEF84FF480615F4800F0A4
:100E500021FA4FF019005E490968009100BFEFF3D5
:100E6000058139B900BF5A490968009A891A814237
:100E7000F9D309E006E04FF0E021096901F480317F
:100E800001B1401E0028F6D100BF4FF480614F48E9
:100E900000F002FA4FF480604B49086000200871AE
:100EA0000320487100208871C871484800F07EF91D
:100EB000282000F0B7F84FF48061444800F0E1F9D1
:100EC000012801D10020FEBD502000F0ABF84FF406
:100ED00080613E4800F0D5F908B90020F3E75020C2
:100EE00000F0A0F84FF48061384800F0CAF90128FA
:100EF00001D10020E7E7002446E0002540E00BE0B8
:100F000034480068401C334908600846006864287B
:100F100002DD0020086055E04FF480612B4800F0AE
:100F2000B0F90028ECD000202A490860322000F0F7
:100F300079F84FF48061254800F0A3F9F0B101A8D9
:100F4000005DC5F1070201219140084301A9085540
:100F50000BE020480068401C1E49086008460068F5
:100F6000642802DD002008602CE04FF480611748FF
:100F700000F087F90028ECD116490860681CC5B25A
:100F8000082DBCDB601CC4B2052CB6DB9DF8040048
:100F90009DF8051008449DF8061008449DF80710B8
:100FA0000844C6B29DF80800B04201D000208AE78C
:100FB0009DF80600084908709DF80400074908706C
:100FC000012080E700207EE724010020000002408D
:100FD00048010020300100202C0100202D010020BC
:100FE00001480078704700002D010020014800787A
:100FF000704700002C010020704708B54FF0804179
:10100000496A009100BF00BF4FF08041496A009AD1
:10101000891AF9D04FF08041496A0091411E081E9B
:10102000F1D108BD08B54FF08041496A009100BF79
:1010300000BF4FF08041496A009A891AF9D04FF0F9
:101040008041496A0091411E081EF1D108BD00008F
:1010500051B18200A2F1C042126842F00103820045
:10106000A2F1C042136009E08200A2F1C0421268FE
:10107000034B1A408300A3F1C0431A60704700007D
:10108000FEFF0F0030B50021002200230468A400F9
:10109000A4F1C0442168444C2140D0E901452C43CF
:1010A000C5682C4305692C4345692C4385692C434D
:1010B000C5692C43056A2C43456A2C43856A2C4339
:1010C000C56A2C43056B2C4321430468A400A4F19A
:1010D000C04421608468082C0BD10468A400A4F1EA
:1010E000C044246844F040050468A400A4F1C0444E
:1010F00025600468641CA400A4F1C044226802F0C6
:101100004042446B2468456B6D6844EA0514456BA6
:10111000AD6844EA0524456BAD8944EA0544456B56
:101120002D8A44EA0554456B2D7D44EA0564456BE0
:10113000AD692C4322430468641CA400A4F1C0449C
:101140002260C46AB4F5804F24D10468A400A4F1DD
:10115000C044D4F8043103F04043846B2468856BA9
:101160006D6844EA0514856BAD6844EA0524856B17
:101170002D8A44EA0554856B2D7D44EA0564856B10
:10118000AD692C4323430468A400A4F1C044C4F80F
:10119000043107E06FF070450468A400A4F1C04476
:1011A000C4F8045130BD00008000F7FFF0B50A46D6
:1011B00000210023002400BF3DE0012505FA01F3D2
:1011C000156805EA03049C4234D105684F000326E4
:1011D000BE40B543056015794E00B54006683543FD
:1011E00005601579012D02D01579022D16D185687B
:1011F0004F000326BE40B543856055794E00B5408B
:10120000866835438560456801268E40B543456054
:10121000456896798E40B6B235434560C5684F0043
:101220000326BE40B543C560D5794E00B540C668BB
:101230003543C560491C1029BFD3F0BDF0B500236C
:1012400000244D07ED0E02FA05F3CE1000F1200543
:1012500055F826504E07F70E0F26BE40B543CF1067
:1012600000F1200646F82750CE1000F1200555F871
:10127000265045EA0304CE1000F1200545F826402B
:10128000F0BD0246002013690B400BB1012000E0C5
:10129000002070474183704701837047A1F120020D
:1012A000034B03EBC202136803605268426070474D
:1012B000E0A50008A1F1200202EB4202044B03EB7F
:1012C00082021368036053684360926882607047CB
:1012D0006CA1000870B505460C46A4F1200000EB97
:1012E0004000044A02EBC00118222846FEF7C0FF66
:1012F00070BD00008498000870B505460C46A4F146
:101300002000044A02EB001110222846FEF7B0FF2D
:1013100070BD00009492000870B505460C46A4F11B
:10132000200000EB4000044A02EB00113022284666
:10133000FEF79EFF70BD0000C480000800BFFEE7FE
:1013400000B587B00121480500F092FE012102207E
:1013500000F06EFE4FF44070059002208DF81800EA
:1013600003208DF8190001208DF81A0000208DF857
:101370001B0005A91548FFF719FF0422082113488F
:10138000FFF75CFF042209211048FFF757FF1048C0
:1013900000F044F80F4801900020ADF808004FF429
:1013A0008040ADF80A000120ADF80C008002ADF8D5
:1013B0000E000001ADF8100001A9054800F05EF82C
:1013C0000121034800F01DF807B000BD00040240F1
:1013D00000540040801A060070B502460024002523
:1013E00000230020958A138B1B0445EA030626F090
:1013F0007F4404EA01068E4201D1012000E0002072
:1014000070BD21B1028842F00102028004E002882E
:101410004FF6FE731A4002807047000010B5044674
:101420001348844209D10121480500F031FE002112
:101430004FF4001000F02CFE18E00E48844209D151
:101440000121880500F024FE00214FF4800000F007
:101450001FFE0BE00848844208D10121C80500F0B6
:1014600017FE00214FF4000000F012FE10BD000036
:101470000054004000580040005C00402DE9FF4748
:1014800004460D460026B1460427DFF8CC80A68826
:101490004FF6C0700640684600F01AFEDDF808807E
:1014A0002E48B8FBF0F01FFA80F946EA0906A6803C
:1014B00020884FF6FE7108402080002628492868C1
:1014C00088420CD828684000B8FBF0F087B2042F9F
:1014D00000DA04273E4309F10100208427E0E88870
:1014E0004BF6FF71884206D1286800EB4000B8FB3C
:1014F000F0F087B209E0286800EBC00101EB0010B2
:10150000B8FBF0F087B247F48047C7F30B0008B987
:1015100047F0010747F4004006434FF4967009FB7B
:1015200000F04FF47A7190FBF1F0401C2084A68308
:10153000208840F00100208026884FF6F5300640D4
:10154000A8886989084306432680A8892989084311
:101550002081BDE8FF87000000127A0040420F00A2
:10156000A086010001B5BDF800000149088008BD52
:101570001401002030B5044600250021084600F083
:101580000DFC00F0C9FC00BF02E0034804806D1CA4
:10159000B5F5963FF9D330BD000002602DE9F04368
:1015A00080460D4614461E460027A1462146284681
:1015B00000F0F4FB00F0B0FC00BF10E01CB9681CA8
:1015C00085B21FFA89F42146284600F0E7FB00F0B7
:1015D000A3FC404600F0A6FC601E84B27F1CB7420C
:1015E000ECD3BDE8F08300001CB50121582000F0C9
:1015F0001FFD0121084600F02BFD0C22002143486D
:10160000FFF71CFE0C2201214048FFF717FE0C22B9
:1016100004213E48FFF712FE0C2205213B48FFF74C
:101620000DFE0C2207213948FFF708FE0C22082185
:101630003648FFF703FE0C2209213448FFF7FEFD70
:101640000C220A213148FFF7F9FD0C220B212F480B
:10165000FFF7F4FD0C220E212C48FFF7EFFD0C22C2
:101660000F212A48FFF7EAFD0C2207212848FFF73F
:10167000E5FD0C2208212648FFF7E0FD0C22092198
:101680002348FFF7DBFD0C220A212148FFF7D6FD96
:101690000C220B211E48FFF7D1FD0C2211461C48DD
:1016A000FFF7CCFD0C220D211948FFF7C7FD0C22D6
:1016B0000E211748FFF7C2FD0C220F211448FFF737
:1016C000BDFD4CF6B370009002208DF8040003209D
:1016D0008DF8050000208DF806008DF8070069469A
:1016E0000A48FFF763FD4FF68070009002208DF8E6
:1016F000040003208DF8050000208DF806008DF809
:10170000070069460248FFF751FD1CBD000C02406E
:10171000001002402DE9F04180460E4615461F4656
:1017200000243146404600F039FB012F0BD100F078
:10173000F3FB00BF04E00D48008800F0F3FB641CDD
:10174000AC42F8D310E000240CE000F0E5FB0748C1
:10175000008800F0E7FB701C86B23146404600F07E
:101760001DFB641CAC42F0D3BDE8F08110010020E9
:101770002DE9F04304460D46904699460026002781
:101780000CE0A11908B229B200F03AFC05EB0902FD
:1017900011B2A21910B200F033FC761C08F101005E
:1017A0008642EEDB0CE0E81901B220B200F028FC22
:1017B000EA1911B204EB080210B200F021FC7F1C00
:1017C00009F101008742EEDBBDE8F08300B597B078
:1017D000002001900290022003900020049001203C
:1017E0000590002006900790089009900A9010201C
:1017F0000B9000200C900E900F9010904FF48050A2
:101800001190002012900D9013904FF4002014902E
:1018100001A8159008A8FFF735FC00200190029060
:1018200004200390002004900120059000200690E1
:10183000079001A8169008A8FFF724FC01210020BA
:10184000FFF706FC17B000BD10B5FFF7CDFE40F660
:10185000B830FFF7D2FBFFF7B9FF40F6B830FFF71B
:10186000CCFB2121072000F063FB3220FFF7C5FBF2
:101870000121002000F05CFB3220FFF7BEFB23219A
:10188000072000F055FB3220FFF7B7FB00211020A6
:1018900000F04EFB5A20FFF7B0FB3321072000F089
:1018A00047FB3220FFF7A9FB46F63001112000F07C
:1018B0003FFB3220FFF7A1FB4FF4C061022000F094
:1018C00037FB3220FFF799FB46F6EB41122000F080
:1018D0002FFB3220FFF791FB4AF6A401032000F012
:1018E00027FB3220FFF789FB00210C2000F020FBB2
:1018F0003220FFF782FB40F60C010D2000F018FBB0
:101900003220FFF77AFB4FF42C510E2000F010FB31
:101910003220FFF772FBB0211E2000F009FB3220BD
:10192000FFF76BFB42F63F31012000F001FB322054
:10193000FFF763FB0021052000F0FAFA3220FFF7E1
:101940005CFB0021062000F0F3FA3220FFF755FB84
:101950004EF61C71162000F0EBFA3220FFF74DFB1B
:1019600040F20311172000F0E3FA3220FFF745FBA5
:1019700000210B2000F0DCFA3220FFF73EFB0021B3
:101980000F2000F0D5FA3220FFF737FB002141206D
:1019900000F0CEFA3220FFF730FB0021422000F0A9
:1019A000C7FA3220FFF729FB0021482000F0C0FAD7
:1019B0003220FFF722FB40F23F11492000F0B8FA35
:1019C0003220FFF71AFB00214A2000F0B1FA322042
:1019D000FFF713FB00214B2000F0AAFA3220FFF79B
:1019E0000CFB4FF46F41442000F0A2FA3220FFF7C5
:1019F00004FB0021452000F09BFA3220FFF7FDFA9E
:101A000040F23F11462000F093FA3220FFF7F5FA3A
:101A100040F20771302000F08BFA3220FFF7EDFA28
:101A20004FF40171312000F083FA3220FFF7E5FA1C
:101A30004FF40171322000F07BFA3220FFF7DDFA1B
:101A400040F20251332000F073FA3220FFF7D5FA4A
:101A500040F20751342000F06BFA3220FFF7CDFA44
:101A60004FF40171352000F063FA3220FFF7C5FA18
:101A70004FF40171362000F05BFA3220FFF7BDFA17
:101A800040F20251372000F053FA3220FFF7B5FA46
:101A900040F202313A2000F04BFA3220FFF7ADFA63
:101AA00041F2BE212F2000F043FA3220FFF7A5FAC1
:101AB00040F202313B2000F03BFA3220FFF79DFA62
:101AC0000021232000F034FA3220FFF796FA00219B
:101AD000242000F02DFA3220FFF78FFA4FF4004156
:101AE000252000F025FA3220FFF787FA00214F2049
:101AF00000F01EFA3220FFF780FA00214E2000F09D
:101B000017FA3220FFF779FA10BD00002DE9F043F3
:101B10008DB007460E46904600240025B8F10A0F06
:101B20007DD09048008808282FD14FF00009414609
:101B30000BA8FFF7B3FB00BF24E00BA810F804903C
:101B400000251BE0C5F1070049FA00F000F0010094
:101B500048B1321911B27A1910B2834A128812B2FE
:101B600000F038FA08E0321911B27A1910B27F4A3F
:101B7000128812B200F02EFA681CC5B2082DE1DB03
:101B8000601CC4B2082CD8DB00BF764800880C2843
:101B900033D14FF00009B8F10A0F02D1A6F10C00C1
:101BA00006B241460AA8FFF785FB002422E00AA8F6
:101BB00010F80490002519E049FA05F000F0010042
:101BC00048B1721911B23A1910B2674A128812B2AA
:101BD00000F000FA08E0721911B23A1910B2634A23
:101BE000128812B200F0F6F9681CC5B2082DE3DBCA
:101BF000601CC4B20C2CDADB00BF5A4800881028E5
:101C000034D14FF00009B8F10A0F02D1A6F110004B
:101C100006B2414609A8FFF76FFB002423E09DE0D0
:101C200009A810F80490002519E049FA05F000F021
:101C3000010048B1721911B23A1910B24A4A128819
:101C400012B200F0C7F908E0721911B23A1910B2D5
:101C5000464A128812B200F0BDF9681CC5B2082DC0
:101C6000E3DB601CC4B2102CDADB00BF3D48008807
:101C70000E2837D14FF00009B8F10A0F02D1A6F1B2
:101C80000C0006B2414607A8FFF724FB002426E01B
:101C900007A830F814001FFA80F900251BE0C5F1F1
:101CA0000C0049FA00F000F0010048B1721911B2BD
:101CB0003A1910B22C4A128812B200F08BF908E0DF
:101CC000721911B23A1910B2284A128812B200F0F1
:101CD00081F9681CC5B20C2DE1DB601CC4B20C2C70
:101CE000D6DB00BF1F480088182837D14FF0000905
:101CF000B8F10A0F02D1A6F1180006B2414601A8B8
:101D0000FFF70AFB002426E001A830F814001FFAB0
:101D100080F900251BE0C5F1100049FA00F000F041
:101D2000010048B1721911B23A1910B20E4A128864
:101D300012B200F04FF908E0721911B23A1910B25C
:101D40000A4A128812B200F045F9681CC5B2102D7B
:101D5000E1DB601CC4B2182CD6DB00BF0DB0BDE8BF
:101D6000F083000014010020100100201201002067
:101D700001B5BDF800000149088008BD120100202E
:101D800003B5BDF8000003490880BDF8040002490E
:101D900008800CBD100100201201002010B5034680
:101DA0000C4619464E2000F0C3F821464F2000F0A3
:101DB000BFF810BDF0B504460D4616461F46B442A6
:101DC00006DBA01B401C81B2442000F0B1F803E008
:101DD0000021442000F0ACF8BD4206DBE81B401CAB
:101DE00081B2452000F0A4F803E00021452000F076
:101DF0009FF82946462000F09BF829462046FFF729
:101E0000CDFFF0BD01B5BDF800000149088008BD57
:101E1000100100202DE9F04105460C4616464FF40E
:101E20009B7800BF16F8017B3A4621B228B2FFF733
:101E30006DFE19480088844218DD1748008808386C
:101E4000201A84B214480088182805D11248008846
:101E50001238201A84B21AE00F4800880C2816D1D4
:101E60000D4800880838201A84B210E00A4800881B
:101E700040F25311081AA84206DD1FFA88F40648FA
:101E80000088284485B202E0E0254FF49874307849
:101E90000028C7D1BDE8F081140100202DE9F041F0
:101EA00006460C46154600BF15F8017B3A4621B29E
:101EB00030B2FFF72BFE17480088844218DD154822
:101EC00000880838201A84B212480088182805D1E2
:101ED000104800881238201A84B214E00D48008897
:101EE0000C2810D10B4800880838201A84B20AE068
:101EF0000848008840F25311081AB04200DD05E09E
:101F0000E0264FF4987428780028CDD100BFBDE8B2
:101F1000F08100001401002022204FF0C041088011
:101F2000704700000149088070470000000002600F
:101F30004FF0C0421080014A1180704700000260DB
:101F400000BFFEE77047000070B5002100230F229C
:101F5000C4781CB3174C246804F4E064C4F5E0644E
:101F6000C4F30721C1F10404E3B20A4144789C4060
:101F7000E1B28478144021430C07210E0E4C057801
:101F80006155047804F01F050124AC4005786D11FB
:101F9000AD0005F1E025C5F8004109E0047804F042
:101FA0001F050124AC40054D0678761145F8264002
:101FB00070BD00000CED00E000E400E080E100E016
:101FC00002490143024A1160704700000000FA050F
:101FD0000CED00E070B504460D461646EF2C02DC11
:101FE000B5F5A07F00DB70BDA9B2A0B2FFF7D6FEA9
:101FF000FFF792FFB0B2FFF795FF00BFF3E70000D5
:1020000030B504460D46EF2C02DCB5F5A07F00DBB1
:1020100030BDA9B2A0B2FFF7C1FEFFF77DFF0348B4
:102020000088FFF77FFF00BFF2E7000010010020EB
:1020300029B1064A12680243044B1A6004E0034ABD
:1020400012688243014B1A6070470000303802402A
:1020500029B1064A12680243044B1A6004E0034A9D
:1020600012688243014B1A60704700003838024002
:1020700029B1064A12680243044B1A6004E0034A7D
:1020800012688243014B1A607047000040380240DA
:1020900029B1064A12680243044B1A6004E0034A5D
:1020A00012688243014B1A607047000020380240DA
:1020B00029B1064A12680243044B1A6004E0034A3D
:1020C00012688243014B1A607047000024380240B6
:1020D000F0B5002100220024022500260223324F01
:1020E0003F6807F00C0121B1042905D0082937D138
:1020F00005E02E4F076036E02D4F076033E02A4F92
:102100003F1F3F68C7F38056274F3F1F3F6807F0C8
:102110003F036EB1264FB7FBF3F7DFF88CC0ACF18D
:10212000040CDCF800C0CCF3881C07FB0CF40CE0BA
:102130001E4FB7FBF3F7DFF870C0ACF1040CDCF80E
:1021400000C0CCF3881C07FB0CF4174F3F1F3F68FF
:10215000C7F301477F1C7D00B4FBF5F7076002E081
:10216000124F076000BF00BF0F4F3F6807F0F0013C
:102170000909104F7A5C0768D74047600A4F3F68EB
:1021800007F4E051890A0B4F7A5C4768D7408760B3
:10219000054F3F6807F46041490B064F7A5C47687A
:1021A000D740C760F0BD0000083802400024F400AA
:1021B00000127A000001002010B54FF4805000F0AA
:1021C00029F828B14FF4805000F014F801F040FADB
:1021D0004FF4005000F01EF828B14FF4005000F00A
:1021E00009F801F036FA4FF400300149086010BDDB
:1021F000143C0140002101098AB242F08002044BE4
:102200001B6803F0800363EA0202014B1A60704707
:102210000C28004030B501460020002200230C4C61
:10222000246804F004020A4C383C24680C4002EA9A
:10223000D13544EA0503064C343C246804EA111203
:102240001BB194B20CB1012000E0002030BD0000B1
:102250004028004010B54FF48040FFF7DBFF28B165
:102260004FF48040FFF7C6FF01F0F4F94FF480000F
:102270000149086010BD0000143C01400CB500206D
:10228000019000903448006840F480303249086082
:1022900000BF3148006800F4003000900198401CF5
:1022A0000190009818B90198B0F5A04FF1D12A48D3
:1022B000006800F4003010B10120009001E000201F
:1022C00000900098012846D123484030006840F033
:1022D00080502149403108602048006840F4404067
:1022E0001E4908601C48083000681B490831086016
:1022F0000846006840F4004008600846006840F462
:10230000A05008601648091F0860081F006840F0C8
:102310008070091F086000BF0F48006800F000705F
:102320000028F9D040F205700E4908600A480830CC
:10233000006820F00300084908310860084600687A
:1023400040F00200086000BF03480830006800F059
:102350000C000828F8D10CBD003802400070004085
:1023600019544007003C024010B5FDF761FF05F02D
:10237000F1FC18B14FF08050024908600020FDF7D1
:102380005EFF10BD04ED00E010B51548006840F494
:102390007000134908601348006840F001001149BB
:1023A000086000200F49083108600E4800680E4997
:1023B00008400C4908600D48091D0860081F0068A6
:1023C00020F48020091F0860002006490C310860B5
:1023D000FFF754FF4FF0006001498039086010BDDD
:1023E00088ED00E000380240FFFFF6FE10300024C8
:1023F00010B54FF6FE704FF0804108822748006804
:10240000401C264908602648006820B1244800681E
:10241000401E23490860AFF30080002438E02148C3
:1024200050F8240090B31F4850F82400007B68B394
:102430001C4850F82400806840B31A4850F8240023
:102440008168491E174850F824008160154850F8EB
:1024500024008068D0B9134A52F824205069114AE8
:1024600052F82420116988470E4850F8240001686A
:102470000C4850F8240081600A4850F82400406855
:1024800020B90021074850F824000173601CC4B231
:102490000448001F0078A042C1DC10BD48010020A4
:1024A0004C010020A80F002070B50024002200235A
:1024B000058C4FF6FE7635400584028C8388048BAC
:1024C0004FF68F752C40B51E2C400D882C43751E81
:1024D0002A408D892A434D882A43104DA84202D0B4
:1024E0000F4DA84213D14FF6F7752A40CD892A43E4
:1024F0004FF6FB752A408D882A434FF6FF652B4027
:102500004FF6FF552B400D8A2B434D8A2B4383807A
:1025100004838D684563028470BD000000000140A3
:10252000000401400A460021018B4FF6F773194061
:10253000114301837047000070B50024002200237E
:10254000058C4FF6EF7635400584028C8388048B2A
:1025500048F6FF752C404FF6FF452C400D884FF68E
:10256000FF7606EA05252C434FF6DF752A408D8954
:1025700006EA05152A434D8806EA05152A43154D36
:10258000A84202D0144DA8421DD14FF67F752A40B3
:10259000CD894FF6FF7606EA05152A434FF6BF753B
:1025A0002A408D8806EA05152A434FF6FF352B4051
:1025B0004FF2FF752B400D8A06EA85052B434D8AA5
:1025C00006EA85052B43838004838D688563028436
:1025D00070BD000000000140000401400A460021D7
:1025E000018B4FF2FF7319404FF6FF7303EA02238A
:1025F000194301837047000070B5002400220023B6
:10260000058C4FF6FF6635400584028C8388848BE9
:102610004FF68F752C404FF6FC752C400D882C43DF
:102620004FF6FF552A408D894FF6FF7606EA0525BD
:102630002A434D8806EA05252A43154DA84202D0B3
:10264000144DA8421DD14FF2FF752A40CD894FF697
:10265000FF7606EA05252A434FF6FF352A408D8886
:1026600006EA05252A434EF6FF752B404DF6FF7509
:102670002B400D8A06EA05152B434D8A06EA0515FF
:102680002B43838084838D68C563028470BD000002
:1026900000000140000401400A460021818B4FF6F2
:1026A000F7731940114381837047000070B5002211
:1026B00000230024058C4EF6FF7635400584038CFC
:1026C0008488828B48F6FF752A404FF6FF452A40E2
:1026D0000D884FF6FF7606EA05252A434DF6FF756D
:1026E0002B408D8906EA05352B434D8806EA0535D2
:1026F0002B430A4DA84202D0094DA84208D14BF6FF
:10270000FF752C400D8A4FF6FF7606EA85152C439F
:10271000848082838D680564038470BD000001405D
:10272000000401400A460021818B4FF2FF731940DB
:102730004FF6FF7303EA02231943818370470000B9
:1027400000220288184B98420ED0184B98420BD0AA
:10275000B0F1804F08D0164B984205D0154B9842E7
:1027600002D0154B984204D14FF68F731A404B8814
:102770001A43124B984207D0114B984204D04FF69F
:10278000FF431A400B891A4302804B68C3620B88CF
:102790000385054B984202D0044B984201D18B7AB5
:1027A000038601238382704700000140000401403A
:1027B0000004004000080040000C004000100040F1
:1027C0000014004010B504460121024800F03CF915
:1027D00010BD00000000024010B50446012102486F
:1027E00000F032F910BD00000008024010B50446A8
:1027F0000221024800F028F910BD00000008024044
:1028000010B504460421024800F01EF910BD000076
:102810000008024010B504460821024800F014F9EF
:1028200010BD00000008024010B50446084884426C
:1028300002D00848844203D11021074800F004F96F
:102840000648844203D11021054800F0FDF810BD70
:102850000020014000210140000802400022014008
:102860000014024010B504460948844202D00948C9
:10287000844204D12021084800F0E6F806E0074829
:10288000844203D12021064800F0DEF810BD00008C
:1028900000200140002101400008024000220140C8
:1028A0000014024010B504460221024800F0CCF8A2
:1028B00010BD00000000024010B50446042102488B
:1028C00000F0C2F810BD00000000024010B5044640
:1028D0000821024800F0B8F810BD000000000240D6
:1028E00010B504460848844202D00848844203D107
:1028F0001021074800F0A8F80648844203D140217F
:10290000054800F0A1F810BD002001400021014061
:1029100000000240002201400014024010B50446AD
:102920000848844202D00848844203D12021074845
:1029300000F08AF80648844203D18021054800F05F
:1029400083F810BD0020014000210140000002403A
:10295000002201400014024010B504460848844299
:1029600002D00848844203D14021074800F06CF8A7
:102970000648844203D18115054800F065F810BD72
:1029800000200140002101400000024000220140DF
:102990000014024010B504460848844202D008489A
:1029A000844203D18021074800F04EF80648844253
:1029B00003D14115054800F047F810BD0020014043
:1029C00000210140000002400022014000140240AA
:1029D00010B504460848844202D00848844203D116
:1029E0000121074800F030F80648844203D1011560
:1029F000054800F029F810BD0020014000210140E9
:102A000000040240002201400014024010B50446B8
:102A10000848844202D00848844203D10221074872
:102A200000F012F80648844203D10821054800F05E
:102A30000BF810BD002001400021014000040240BD
:102A400000220140001402407CB504460D460120DE
:102A5000022100230322CDE900102946204600F080
:102A6000ADFA7CBD70B506460D462C461CB9304605
:102A7000FFF7A8FE58E0012C03D13046FFF712FF04
:102A800052E0022C03D13046FFF716FF4CE0032C36
:102A900003D13046FFF71AFF46E0042C03D130463D
:102AA000FFF71EFF40E0052C03D13046FFF736FF4D
:102AB0003AE0062C03D13046FFF74EFF34E0072CF6
:102AC00003D13046FFF766FF2EE0082C03D13046D5
:102AD000FFF77EFF28E0092C03D13046FFF796FF71
:102AE00022E00A2C03D13046FFF776FE1CE00B2CC7
:102AF00003D13046FFF77AFE16E00C2C03D13046A6
:102B0000FFF77EFE10E00D2C03D13046FFF782FE6A
:102B10000AE00E2C03D13046FFF786FE04E00F2CAE
:102B200002D13046FFF79EFE304600F001F870BD3E
:102B300010B58AB0044600208DF815000890079063
:102B4000069001208DF8240000208DF814001C4808
:102B5000844208D11B48006840F48070194908601D
:102B60000020049016E01848844208D115480068F7
:102B700040F4007013490860002004900AE01348F4
:102B8000844207D10F48006840F480600D49086016
:102B9000002004900020029000904FF480300190BB
:102BA0004FF4407003906846FEF742F804A92046AF
:102BB000FEF756F8A06840F00100A0600AB010BD12
:102BC0000020014044380240002101400022014021
:102BD00070B504460D4640F6FF7601231A46294695
:102BE0002046FEF767F8A06840F08040A06004E04F
:102BF000301EA6F1010600D170BD206800F0020071
:102C00000028F5D0E06C80B2F6E7000000B58BB08C
:102C100001A94FF0804000F039FE9FED240B01A880
:102C200000F0CAFD4FF0804000F016FD0020ADF826
:102C30002800ADF8220040F2E73009901D490198C4
:102C40000968B1FBF0F01C4948431A490968B1FB17
:102C5000F0F0401E80B2ADF8200000208DF82A0070
:102C600008A94FF08040FFF76BFD4FF0804080894E
:102C700040F001004FF0804188811C208DF81C003D
:102C800001208DF81F0000208DF81D008DF81E001A
:102C900007A8FFF759F94FF08040008840F0010085
:102CA0004FF0804108800BB000BD00000000000024
:102CB00080842E41EC00002040420F0010B5FFF749
:102CC000A5FF01200149087010BD0000540100203B
:102CD0001CB50020022103460246CDE90010012167
:102CE000014800F06BF91CBD000002401CB5032038
:102CF00000210B460122CDE900104FF47041044839
:102D000000F05CF94FF4704001491A3108801CBD95
:102D1000000C024001460A1102EB8202500001F051
:102D20000F020244D0B270470146002300220A205D
:102D300091FBF0F0C2B202EB8200A1EB4000C3B203
:102D400043EA0210C0B2704703468B4201DA0846DC
:102D50007047934201DD1046FAE71846F8E710B5D0
:102D6000042000F001F810BD70B505460DB990249F
:102D700012E0012D01D191240EE0022D01D1922407
:102D80000AE0032D01D1932406E0042D01D1802413
:102D900002E0052D00D1002423460722D02102485D
:102DA00000F080FB70BD0000005800403EB50446B6
:102DB000072001AB0022D0210090134800F0A8FAB0
:102DC0009DF80400FFF7A6FF20609DF80500FFF7BF
:102DD000A1FF60609DF80600FFF79CFFA0609DF8D2
:102DE0000700FFF797FFE0609DF80800FFF792FFEC
:102DF00020619DF80900FFF78DFF60619DF80A00D2
:102E0000FFF788FFA0613EBD0058004010B5074A9B
:102E10000021074800F0BEF9D021054800F045FA2E
:102E200008B9022010BD0020FCE70000801A06004F
:102E3000005800403EB5044620783B220021FFF7B1
:102E400083FF0546FFF770FF8DF8040020793B22D1
:102E50000021FFF779FF0546FFF766FF8DF80500B3
:102E6000207A17220021FFF76FFF0546FFF75CFF6E
:102E70008DF80600207B07220121FFF765FF05463C
:102E8000FFF752FF8DF80700207C1F220121FFF77A
:102E90005BFF0546FFF748FF8DF80800207D0C22F8
:102EA0000121FFF751FF0546FFF73EFF8DF80900AE
:102EB000207E63220021FFF747FF0546FFF734FF1E
:102EC0008DF80A00072001AB0022D02100900248B3
:102ED00000F018FB3EBD00000058004001464FF4D2
:102EE0000030081AC0F38F207047000000B502467A
:102EF0001046FFF7F3FF012101FA00F002490968CB
:102F000008430149086000BD303802402DE9F04314
:102F100004460E461546DDE907892046FFF7DEFF29
:102F2000C7B2002243E001209040304000B93CE0AD
:102F3000214830F817000121914008431E4921F82B
:102F40001700E0684FEA420C032101FA0CF18843B4
:102F5000510008FA01F10843E06020684FEA420C92
:102F6000032101FA0CF18843510005FA01F10843ED
:102F70002060012D01D0022D16D161680120904002
:102F800080B221EA000003FA02F189B208436060CE
:102F9000A0684FEA420C032101FA0CF1884351006A
:102FA00009FA01F10843A06000BF501CC2B2102A08
:102FB000B9DBBDE8F08300008C0F00202DE9FC4355
:102FC00005460C4616461F46DDE909890CB9BDE8E1
:102FD000FC832846FFF78AFF3B46324621462846B7
:102FE000CDE90089FFF792FF00BFF0E72DE9FC472C
:102FF00005460E4617469846DDE90A9A0EB9BDE821
:10300000FC872846FFF772FF00241AE00120A04049
:10301000304000B914E0E10805F1200050F821002B
:103020006107CA0E0F21914088436107C90E0AFA51
:1030300001F10843E20805F1200141F8220000BF38
:10304000641C102CE2D33B46022231462846CDE9CF
:103050000089FFF75BFF00BFD1E700001CB5044605
:103060004CB9042001210B460A46CDE90010C021CD
:103070001148FFF7BBFF012C0AD1042001210B46A8
:103080000A46CDE900104FF440710B48FFF7AEFF40
:10309000022C0AD1042001210B460A46CDE900107A
:1030A0004FF410710448FFF7A1FF032C03D1042152
:1030B000024800F0F9F81CBD000402400054004032
:1030C0001CB5044654B9042001210B460A46CDE93B
:1030D00000104FF440611148FFF788FF012C09D11F
:1030E000042001210B460A46CDE9001003210C48BB
:1030F000FFF77CFF022C09D1042001210B460A4670
:10310000CDE9001030210748FFF770FF032C03D1F1
:103110000421054800F0C8F81CBD0000000402406E
:1031200000140240001C0240005800401CB5044638
:103130009CB9042001210B460A46CDE9001081010B
:103140001048FFF753FF042001210B460A46CDE942
:103150000010C1010C48FFF749FF012C0AD10420DF
:1031600001210B460A46CDE900104FF4C071074813
:10317000FFF73CFF032C03D10421054800F094F82D
:103180001CBD00000000024000080240001C02407C
:10319000005C00407FB504460E4615463D4884421B
:1031A00021D13D48006840F400103B49086030469A
:1031B000FFF754FF39480068A84201D93748056035
:1031C0003648006800904FF48040ADF80C000020B5
:1031D000ADF80400ADF80800ADF80A004BF6FF703A
:1031E000ADF8060048E02E48844221D12A48006804
:1031F00040F48000284908603046FFF761FF274807
:103200004068A84201D9254845602448406800909C
:103210004FF48040ADF80C000020ADF80400ADF88C
:103220000800ADF80A004BF6FF70ADF8060023E089
:103230001C48844220D11848006840F40000164918
:1032400008603046FFF772FF14488068A84201D931
:10325000124885601148806800904FF48040ADF8B6
:103260000C000020ADF80400ADF80800ADF80A002D
:103270004BF6FF70ADF80600208820F0010020809A
:1032800069462046FEF7FAF8208840F001002080C9
:103290007FBD00000054004040380240380100204B
:1032A00000580040005C0040704770B504460D4671
:1032B0000026012300222946204600F07BF800B9B1
:1032C0000126204600F0CEF8304670BD70B50446A9
:1032D000208840F48060208044F620600A4908601D
:1032E00007E009480068401E0749086008B9012046
:1032F00070BD06492046FEF76FF80028F1D0208AFD
:10330000C5B22846F4E70000340100204000030065
:103310002DE9F0478046894616461D46089F012341
:1033200000224946404600F045F83146404600F04C
:10333000D3F801231A464946404600F03BF80024E2
:103340000DE0781EA04204D1404600F00DF828554B
:1033500003E04046FFF7BAFF2855601CC4B2BC42E8
:10336000EFDBBDE8F087000070B50446208820F44C
:1033700080602080208840F40070208044F6206027
:103380000A49086007E009480068401E07490860CC
:1033900008B9012070BD06492046FEF71DF8002837
:1033A000F1D0208AC5B22846F4E70000340100209D
:1033B000400003002DE9F04104460D4616461F4625
:1033C000208840F48070208044F620602349086003
:1033D00008E022480068401E2049086010B901201A
:1033E000BDE8F081A08A00F001000028F1D01FB1F3
:1033F000208840F480602080A6B925F0010020825A
:1034000044F620601549086007E014480068401E33
:103410001249086008B90120E2E7A08A00F0020022
:103420000028F2D0012E15D145F00100208244F68B
:1034300020600A49086007E008480068401E074904
:10344000086008B90120CBE705492046FDF7C4FF15
:103450000028F1D0208B0020C2E7000034010020BA
:1034600002000300014644F620600D4A106007E0A8
:103470000B480068401E0A4A106008B901207047D6
:10348000888A00F080000028F2D0888A00F00400CA
:103490000028EDD0088840F4007008800020EEE796
:1034A000340100202DE9F04106460F4614461D4622
:1034B00000231A4639463046FFF77CFF2146304646
:1034C00000F00AF82946304600F006F83046FFF7CB
:1034D000C9FFBDE8F081000044F62062084B1A6085
:1034E00004E0074A1268521E054B1A60828A02F0F5
:1034F00080021AB9024A1268002AF2D1018270478A
:10350000340100202DE9F0470746884615461E463F
:10351000DDF8209000231A4641463846FFF74AFF5F
:1035200029463846FFF7D8FF002405E0315D3846CC
:10353000FFF7D2FF601CC4B24C45F7DB3846FFF7FB
:1035400091FFBDE8F087F0B585B007460D461646F9
:103550001C462868401EA04202D2032005B0F0BDE0
:1035600002947020ADF800000120ADF802000220A6
:10357000ADF80C0036B1012E0DD0022E14D0032E62
:1035800024D11AE069463846FEF78EFF08213846F6
:10359000FEF7C8FF1BE069463846FEF7CDFF08215D
:1035A0003846FFF71BF812E069463846FFF724F863
:1035B00008213846FFF770F809E069463846FFF7FA
:1035C00075F808213846FFF7ADF800E000BF00BFEE
:1035D0000020C3E72DE9F0412DED028B05460C4696
:1035E0001646B0EE408A9FED190AB4EEC08AF1EE9D
:1035F00010FA09DD3246214628462368FFF7A3FF6B
:10360000BDEC028BBDE8F081B5EEC08AF1EE10FA98
:1036100006D80023324621462846FFF794FFEFE7FD
:103620002068401E00EE100AB8EE400A20EE080A9C
:10363000BCEEC00A10EE100A6421B0FBF1F73B4665
:10364000324621462846FFF77EFFD9E70000C842F0
:10365000704770477047000001464948814205D1D4
:103660004848006840F00100464A1060B1F1804FC0
:1036700007D14448001F006840F00100414A121F72
:1036800010604148814207D13E48001F006840F069
:1036900002003C4A121F10603C48814207D1394861
:1036A000001F006840F00400364A121F10603848BE
:1036B000814207D13348001F006840F00800314ABA
:1036C000121F10603348814207D12E48001F006846
:1036D00040F010002B4A121F10602F48814207D182
:1036E0002848001F006840F02000264A121F106082
:1036F0002A48814205D12348006840F00200214A4F
:1037000010602748814205D11E48006840F480308F
:103710001C4A10602348814205D11A48006840F4D1
:103720000030184A10602048814205D115480068D1
:1037300040F48020134A10601C48814207D1114890
:10374000001F006840F040000E4A121F1060184829
:10375000814207D10B48001F006840F08000094AF1
:10376000121F10601348814207D10648001F0068ED
:1037700040F48070034A121F106000207047000060
:1037800000000140443802400004004000080040AE
:10379000000C0040001000400014004000040140F4
:1037A0000040014000440140004801400018004032
:1037B000001C00400020004010B52DED068B044693
:1037C000B0EE408AF0EE608A2068FCF7A0FE41EC83
:1037D000190B53EC182BFCF7D3FE07D20020206105
:1037E000E06060610320BDEC068B10BD9FED250BF2
:1037F00053EC102B51EC180BFCF7C2FE05D1002046
:103800002061E06060610420EDE76068B0F5803F12
:1038100002D26068401C60600020206100BF206907
:10382000401C2168B1FBF0F0E060E068FCF76FFE3F
:1038300041EC1A0B53EC182BFCF7E9FD41EC190B8A
:10384000FCF772FEE0602069401C20616168E0685E
:10385000884204D9A068401C21698142DFD9A06850
:10386000401C2169814205D900202061E06060612F
:103870000420B8E751EC180BFCF756FE60610020FD
:10388000B1E7000000000000000000007FB5044622
:103890000D466846FEF71CFC4FF6FF70A860B4F1B9
:1038A000804F02D01F48844207D1039828604FF010
:1038B000FF306860002004B070BD1B4884420BD00C
:1038C0001A48844208D01A48844205D019488442D4
:1038D00002D01948844206D1019828604FF6FF7043
:1038E00068600020E7E71548844211D014488442FC
:1038F0000ED0144884420BD01348844208D0134899
:10390000844205D01248844202D01248844206D133
:10391000039828604FF6FF7068600020CBE7022014
:10392000C9E70000000C0040000001400004014015
:1039300000400140004401400048014000040040B4
:103940000008004000100040001400400018004033
:10395000001C0040002000401CB5044644B908206B
:10396000032101230022CDE900100B48FFF73EFBA5
:10397000012C09D10820032101230022CDE90010E8
:1039800089020648FFF732FB032C03D108210448C3
:1039900000F0F8FA1CBD00000000024000080240E0
:1039A000004C00401CB504469CB9082003210123AB
:1039B0000022CDE9001041020948FFF717FB08205B
:1039C000032101230022CDE9001004210548FFF75F
:1039D0000DFB032C03D10821034800F0D3FA1CBDD2
:1039E00000080240000C0240005000401CB5044694
:1039F0004CB90720032101230022CDE90010490220
:103A00000A48FFF7F3FA012C09D10720032101230B
:103A10000022CDE90010C0210548FFF7E7FA032C8A
:103A200003D10721034800F0ADFA1CBD000002409D
:103A300000040240001001401CB504464CB90720A8
:103A4000032101230022CDE900100C210A48FFF7D1
:103A5000CDFA012C09D10720032101230022CDE951
:103A6000001060210548FFF7C1FA032C03D107219C
:103A7000034800F087FA1CBD00000240000C024021
:103A8000004400401CB504464CB907200321012323
:103A90000022CDE9001089021048FFF7A7FA012C97
:103AA00009D10720032101230022CDE9001089025A
:103AB0000B48FFF79BFA022C09D1072003210123B1
:103AC0000022CDE9001009020648FFF78FFA032C07
:103AD00003D10721044800F055FA1CBD0004024040
:103AE00000080240000C0240004800401CB504469B
:103AF0004CB90820032101230022CDE90010C02188
:103B00000B48FFF773FA012C0AD108200321012387
:103B10000022CDE900104FF484410648FFF766FA11
:103B2000032C03D10821044800F02CFA1CBD00002E
:103B300000080240001802400014014010B504467D
:103B4000204600F0A9F80346D88828B91889598971
:103B5000884201D1012010BD0020FCE710B50446C9
:103B6000204600F099F803460020D880188158813B
:103B700010BDF0B507460D46384600F08DF80346F7
:103B8000DE885C890DE09888A04200D10024186886
:103B9000005DA84201D10120F0BD601C84B2701EFE
:103BA00086B2002EEFDC0020F6E730B50446002593
:103BB000204600F071F80346D888002803DC1889F5
:103BC0005989884211D058899988884201D10020AA
:103BD000588159891868405C45B25889401C588101
:103BE000D88810B1D888401ED880E8B230BD2DE901
:103BF000F04180460E4617460024404600F04CF83F
:103C00000546E88840B1697B4046FFF7B2FF30B90E
:103C1000E888A988884202D00020BDE8F0810AE047
:103C20004046FFF7C2FF3055305D697B884200D1C6
:103C300004E0601C84B2781EA042F1DC00BF0021C9
:103C4000601C80B2044631542046E6E701460C4A27
:103C5000914200D100200B4A914200D101200A4A32
:103C6000914200D10220094A914200D10420084A21
:103C7000914200D10520074A914200D106207047A9
:103C8000001001400044004000480040004C00404B
:103C9000005000400014014001460C4A914200D1FE
:103CA0000B480C4A914200D10B480C4A914200D17A
:103CB0000B480C4A914200D10B480C4A914200D16A
:103CC0000B480C4A914200D10B487047001001404C
:103CD00058010020004400406801002000480040D6
:103CE00078010020004C0040880100200050004076
:103CF0009801002000140140A80100202DE9F04F98
:103D000087B004460D4616461F46DDE911ABDDF8C7
:103D100040902046FFF7C0FF8046039652488442F9
:103D20000BD15248006840F0100050490860284606
:103D3000FFF75CFE25208DF808004D4884420DD128
:103D40004A48001F006840F400304849091F0860D5
:103D50002846FFF771FE26208DF80800454884426A
:103D60000DD14248001F006840F480203F49091FE0
:103D700008602846FFF786FE27208DF808003E4899
:103D800084420DD13948001F006840F400203749B3
:103D9000091F08602846FFF7DFFD34208DF8080072
:103DA000364884420DD13148001F006840F480102D
:103DB0002E49091F08602846FFF7F4FD35208DF8CD
:103DC00008002F4884420BD12848006840F02000AA
:103DD000264908602846FFF789FE47208DF808002D
:103DE000204600F069F901208DF80B0006208DF8BF
:103DF00009002046FFF72AFF8DF80A0002A8FEF707
:103E0000A3F8ADF818701FFA89F0ADF816001FFA84
:103E10008AF0ADF814001FFA8BF0ADF81200139879
:103E200080B2ADF81000002088F80C0000BF40F60A
:103E3000FF70019000BF0198411E01910028FAD146
:103E400000BF03A9204600F0AFF9A08940F0200090
:103E5000A081012088F80C00A08940F40050A081C6
:103E600007B0BDE8F08F0000001001404438024068
:103E70000044004000480040004C0040005000401A
:103E800000140140C28883889A420EDA028983882E
:103E90009A4201D10022028103890268D154028929
:103EA000521C0281C288521CC28070477FB50446F2
:103EB0000D4616462D4884420BD100200C23CDE937
:103EC0000030029003463246294603902046FFF711
:103ED00015FF274884420BD100200C23CDE9003088
:103EE000029003463246294603902046FFF706FF1C
:103EF000204884420BD100200C23CDE900300290F1
:103F000003463246294603902046FFF7F7FE1A483B
:103F100084420BD100200C23CDE9003002900346EF
:103F20003246294603902046FFF7E8FE13488442B4
:103F30000BD100200C23CDE900300290034632461D
:103F4000294603902046FFF7D9FE0D4884420BD145
:103F500000200C23CDE9003002900346324629466A
:103F600003902046FFF7CAFE7FBD0000001001400D
:103F70000044004000480040004C00400050004019
:103F800000140140704730B503460C461846FFF751
:103F900083FE0546287B00B930BD12E000BF00BF9C
:103FA000188800F080000028FAD000BF14F8010B38
:103FB000988000BF00BF188800F080000028FAD069
:103FC00000BF20780028E9D100BFE5E730B50446FE
:103FD0000B462046FFF760FE05466B7330BD0000C0
:103FE00000B50648008800F0200030B10348001DED
:103FF0000088C1B20248FFF745FF00BD004C0040F9
:104000008801002000B50648008800F0200028B193
:1040100003488088C1B20348FFF734FF00BD0000A9
:10402000005000409801002000B50648008800F0CC
:10403000200028B103488088C1B20348FFF722FF5F
:1040400000BD0000001001405801002000B50648E6
:10405000008800F0200030B10348001D0088C1B284
:104060000248FFF70FFF00BD004400406801002038
:1040700000B50648008800F0200030B10348001D5C
:104080000088C1B20248FFF7FDFE00BD00480040B5
:104090007801002000B50648008800F0200030B10B
:1040A0000348001D0088C1B20248FFF7EBFE00BDC7
:1040B00000140140A801002010B504463248844293
:1040C00008D101211020FDF7F3FF00211020FDF79A
:1040D000EFFF57E02D48844209D101214804FDF744
:1040E000D7FF00214FF40030FDF7D2FF4AE0284807
:1040F000844209D101218804FDF7CAFF00214FF451
:104100008020FDF7C5FF3DE02248844209D101210E
:10411000C804FDF7BDFF00214FF40020FDF7B8FFF4
:1041200030E01D48844209D101210805FDF7B0FFA8
:1041300000214FF48010FDF7ABFF23E017488442C5
:1041400008D101212020FDF7B3FF00212020FDF739
:10415000AFFF17E01248844209D101218807FDF71B
:1041600097FF00214FF08040FDF792FF0AE00D48D5
:10417000844207D101214005FDF78AFF0021600537
:10418000FDF786FF10BD0000001001400044004014
:1041900000480040004C0040005000400014014026
:1041A00000780040007C00402DE9FF4705460E46A0
:1041B0000024A14600BFA046B08900B100BF2C8AF0
:1041C00024F44054F08804432C82AC8941F20C6002
:1041D0008443B08831890843718908430443AC8122
:1041E000AC8A24F44074B0890443AC826846FDF77D
:1041F0006FFF2048854202D01F48854202D1DDF87A
:104200000C9001E0DDF80890A88900F4004040B16E
:1042100009EBC90000EB091031684900B0FBF1F768
:1042200007E009EBC90000EB091031688900B0FB19
:10423000F1F76420B7FBF0F004012009642101FBD1
:104240001078A88900F4004040B1322000EBC8008B
:10425000B0FBF1F000F00700044308E0322000EB6F
:1042600008106421B0FBF1F000F00F0004432C8132
:10427000BDE8FF87001001400014014000BFFEE7C9
:104280000FB4084B10B504A902AA039800F0F8FF78
:10429000044602A9002001F08AFB204610BC5DF80C
:1042A00014FB0000AF59000803B4019841000098C6
:1042B00050EAC12018BF04204A0D18BF40F0010089
:1042C00040F2FF72B2EB515F08BF40F002000128DC
:1042D00008BF052002B07047004870473802002030
:1042E0002DE9F04D2DED040B2DED0E8B96B0DDE993
:1042F0002550279CDDF890A025F0004624F00048CA
:10430000BAF1000F14BF0121002101EB4502FC4965
:1043100053184A1093422AD3002814BF01230023C4
:1043200003EB44030B44F7498B4220D358EA0001C6
:104330009FEDF59B76D0DFF8D8B35D4503D1BAF198
:10434000000F05D188E0BAF1000F08BF002100D0AE
:10435000012101EB450111F5001F08D8002814BF09
:104360000121002101EB440111F5001F0BD99DED46
:10437000261B9DED240B16B0BDEC0E8B04B0BDE8E2
:10438000F04D00F069BE0027002DBCBFE149884513
:1043900021DAE1498845A8BF02271CDAC3451ADCA7
:1043A000DE4901EB2851142908DDC1F1340220FA5D
:1043B00002F101FA02F282420DD108E058B9C1F1CE
:1043C000140228FA02F101FA02F2424503D101F087
:1043D0000101C1F1020756EA0A0124D1002C22DAB8
:1043E000002D18BF022F01D0012F0AD0022000F0AB
:1043F0007FFE16B0BDEC0E8B04B0BDE8F04D00F0B2
:1044000013BE022000F074FE00F00EFE51EC100B03
:1044100081F0004141EC100B16B0BDEC0E8B04B0E6
:10442000BDE8F08D18E09FEDBEAB9FEDBF8B00287F
:1044300071D1B848804522D105F1804010F5801037
:1044400008BFBAF1000F07D0B3450ADC002CA8BFA3
:104450009DED260BE0DA0DE0B0EE490AF0EE690AB8
:10446000DAE7002C06DA9DED260B51EC100B81F0FB
:1044700000416FE0AE48784490ED000BCCE7D845A2
:104480004DD1002C48DA2EB186423AD1BAF1000F54
:1044900042D126E0BAF1000F13D0022000F028FE2E
:1044A00000F0F6FD8DED020B9DED240B8DED000B64
:1044B00010EE900A039961F31E0003909DED020B2C
:1044C000AAE78DED02AB9DED240B1AEE901A10EECB
:1044D000900A8DED000B61F31E0003909DED020B21
:1044E0009AE78DED028B9DED240B18EE901A10EEDD
:1044F000900A8DED000B61F31E0003909DED020B01
:104500008AE709DA9DED240B51EC190B53EC102BC3
:10451000FBF77DFF1EE020E09DED240B7CE786424B
:104520001BDAB4F1804F0DD0A4F10050B0F1FF5070
:1045300013D1002D11DB9DED240B51EC100B02F07B
:1045400069FC07E09DED240B53EC102B51EC100B94
:1045500000F0C2BC41EC100B5EE79DED240B51EC6A
:10456000100B01F08FFABAF1000FCDE90E0142D124
:104570009FED710B46B3A6F1E040B0F17F600CD027
:104580005E4538D1002D00DAA7B3022F0CBF012001
:104590004FF0FF30FBF7AAFFDCE7002D01DD002C18
:1045A0000DDA002D01DD002C1FDB002D16DA002CAA
:1045B00014DB012F08BF9FED620B3FF42DAFB0EE6F
:1045C0004A0AF0EE6A0A27E7022F18BF002D0CD026
:1045D000012F0AD1002DFFF61FAF06E0002DB8BF56
:1045E000002C08DA012F3FF417AFB0EE480AF0EEC6
:1045F000680A11E71BE0012000EBE57050EA0701B3
:1046000015D0791EB0EE498AF0EE698A084308BFDA
:104610009FED4D8B4E480025804570DD4D494E483D
:10462000884514DDB0420DDB002C19DB2FE00120A2
:1046300000F05EFD16B0BDEC0E8B04B0BDE8F04D91
:1046400000F016BDB34502DC002C09DC1FE08642F9
:1046500002DA002C1BDA03E05E452BDD002C16DDB0
:10466000022000F045FD00F013FD8DED020B53EC30
:104670001A2B51EC180BFBF758FECDE900010399FA
:10468000019861F31E0003909DED020BC4E6022029
:1046900000F02EFD00F00CFD10EE901A18EE900ABE
:1046A0008DED020B8DED008B61F31E0003909DEDEF
:1046B000020BB1E69DED0E0B53EC192B51EC100BD8
:1046C000FCF76EF99FED260BCDE9080153EC102B9A
:1046D0009DED080B51EC100BFBF727FE9FED221B05
:1046E00053EC112BFCF75FF99DED081B53EC112BDC
:1046F000FBF71BFE9FED1E1B53EC112B3CE08CE0E7
:10470000FFFF1F00FFFF0F00000000000000F03F50
:104710000000F03F0000F07F0000404301FCFFFF7D
:10472000000000000000F07F00000000000000001A
:10473000E6640000000000000000000000000080AF
:10474000000000000000F0FF000000000000F0BFCB
:104750000000E0410000F043FFFFEF3F00000000D9
:10476000000000000000D03F555555555555D53F28
:10477000000000000000E03FFCF715F99DED080B7C
:1047800041EC1A0B53EC102B51EC100BFBF7CDFD49
:1047900053EC1A2BFBF7C9FD41EC1A0B9FEDFE0BF6
:1047A00053EC102B9DED080B51EC100BFBF7BDFDEE
:1047B00041EC1B0B9FEDFA0B51EC1A0B53EC102B39
:1047C000FBF7B3FD41EC1A0B9FEDF70B53EC102BED
:1047D0009DED080B51EC100BFBF7A7FD53EC1A2BCA
:1047E000FCF7DEF841EC1A0B51EC1B0B53EC1A2BC7
:1047F000FCF735F80690CDE906519DED060B53EC1C
:104800001B2B51EC100BFCF7CBF853EC1A2BFCF7DD
:10481000CAF841EC100B00F0A1B90020B6F5801FDA
:104820000EDA9FEDE30B53EC102B9DED0E0B51ECCC
:10483000100BFBF77AFDCDE90E016FF034000E4648
:1048400000EB2650A0F2FF37C6F31300DA4940F020
:104850007F6646F040568842D8BF002408DDD7491D
:104860008142C8BF012403DC0024A6F580167F1C0A
:10487000D348784400EBC4000F9690ED00CB9DED3B
:104880000E0B53EC1C2B51EC100BFCF789F89DED33
:104890000E0B41EC1B0B53EC1C2B51EC100BFBF7DC
:1048A000DEFF41EC100B51EC190B53EC102BFBF716
:1048B000AEFD41EC1D0B51EC1B0B53EC1D2BFBF71C
:1048C00034FD41EC1A0BBF488DED10AB78441095C8
:1048D00090ED000B4FF0005040EA660000EB844082
:1048E0008DED080B00F5002009909DED080B53ECB1
:1048F0001C2B51EC100BFCF753F89DED0E1B53ECE9
:10490000112BFCF750F841EC100B53EC102B9DEDE4
:10491000100B51EC100BFBF708FD9DED080B41EC63
:104920001C0B53EC102B9DED100B51EC100BFBF7F7
:10493000FCFC53EC1B2BFCF736F853EC1C2BFCF760
:104940002FF853EC1D2BFBF7F0FC41EC1C0B53EC48
:104950001A2B51EC1A0BFBF7E8FC41EC1B0B9A48A5
:104960000621B0EE4B0AF0EE6B0A784400F0E0FA54
:10497000B0EE401AF0EE601AB0EE41DAF0EE61DA15
:1049800053EC1B2B51EC1B0BFBF7CFFC53EC1D2BFB
:10499000FBF7CBFC9DED100B41EC1B0B53EC1A2BE2
:1049A00051EC100BFBF75BFF53EC1C2BFBF7BDFC32
:1049B00053EC1B2BFBF753FF9DED100B41EC1B0B36
:1049C00053EC102B51EC100BFBF7AFFC41EC1D0B23
:1049D0009FED7FEB53EC1E2BFBF741FF53EC1B2BA2
:1049E000FBF73DFF0890CDE908519DED080B53EC16
:1049F0001E2B51EC100BFBF7D3FF53EC1D2BFBF7D9
:104A0000CFFF53EC1B2BFBF7CEFF9DED080B41ECCA
:104A10001D0B53EC102B9DED100B51EC100BFBF705
:104A200084FC41EC1B0B53EC1A2B51EC1D0BFBF7D8
:104A30007CFC9DED080B41EC1A0B53EC102B51EC58
:104A40001C0BFBF772FC53EC1A2BFBF708FF41EC35
:104A50001A0B51EC1B0B53EC1A2BFBF700FF0C90BD
:104A6000CDE90C519DED0C0B53EC1B2B51EC100BB5
:104A7000FBF796FF53EC1A2BFBF795FF41EC1B0B52
:104A80009FED550B53EC102B9DED0C0B51EC100BC7
:104A9000FBF74BFC41EC1A0B9FED510B51EC1B0B40
:104AA00053EC102BFBF741FC41EC1B0B9FED4E0B25
:104AB00053EC102B9DED0C0B51EC100BFBF735FC60
:104AC00053EC1B2BFBF7CBFE41EC100B4848784412
:104AD00000EBC40090ED001B51EC100B53EC112BBC
:104AE000FBF7BDFE41EC1B0B3846FBF7FFFCCDE9A5
:104AF000080153EC1B2B51EC1A0BFBF7B0FE41ECF9
:104B0000100B3C48784400EBC40090ED00CB51EC16
:104B1000100B53EC1C2BFBF7A2FE9DED081B53EC76
:104B2000112BFBF79CFE0690CDE906519DED080B7D
:104B300053EC102B9DED060B51EC100BFBF730FFE7
:104B400053EC1C2BFBF72CFF53EC1A2BFBF728FF25
:104B500053EC1B2BFBF727FF41EC100B9DED261BA5
:104B600053EC102B8DED001B00959DED260B51ECA9
:104B7000100BFBF7DAFB9DED000B41EC1A0B53EC2D
:104B8000102B9DED260B51EC100BFBF709FF9DED53
:104B9000061B53EC112B2FE0000000604715F73F78
:104BA000FE822B654715F73F44DF5DF80BAE543EA0
:104BB00000000000000040438E9803007AB60B000E
:104BC00062600000906000009A5F0000000000003A
:104BD0000000000000000840000000E009C7EE3FB0
:104BE000FD033ADC09C7EE3FF5015B14E02F3EBE42
:104BF000265E0000E05D0000FBF797FB53EC1A2BEC
:104C0000FBF72DFE9DED060B41EC1A0B53EC102B20
:104C10009DED000B51EC100BFBF787FBCDE90C0170
:104C20009DED0C0B51EC1A0B53EC102BFBF717FE00
:104C3000CDE902010C46AA498C422FDB611A0843D8
:104C400018D19DED0C0B53EC102B9DED020B51EC8C
:104C5000100BFBF7A5FE41EC1B0B9FEDA30B51ECDA
:104C60001A0B53EC102BFBF7FAFD53EC1B2BFBF745
:104C70009FFC2DD2022000F03BFA00F009FA10EE62
:104C8000901A18EE900A8DED020B8DED008B61F3FA
:104C90001E0003909DED020BFFF7BEBB944A24F06B
:104CA0000041914214D39349214408437FF4EFAC6F
:104CB0009DED0C0B53EC102B9DED020B51EC100BEA
:104CC000FBF76EFE53EC1A2BFBF772FC7FF6DFACA2
:104CD00024F000408849894A002601EB2051824295
:104CE0002BDA481C4FF4801121FA00F02044844A4A
:104CF000C0F30A517A44A1F2FF3192ED000B814AD0
:104D00008DED080BCA4020EA0202C0F3130040F404
:104D10008010C1F1140120FA01F60992002CB8BFED
:104D200076429DED080B53EC102B9DED0C0B51ECD6
:104D3000100BFBF735FECDE90C019DED0C0B51EC92
:104D40001A0B53EC102BFBF78AFD9FED6F0B0890AD
:104D5000CDE9085153EC102B9DED080B51EC100BD5
:104D6000FBF7E3FA41EC1B0B9FED690B53EC102BA7
:104D70009DED080B51EC100BFBF7D7FA9DED0C0BDA
:104D800041EC1C0B53EC102B9DED080B51EC100B60
:104D9000FBF706FE53EC1A2BFBF705FE9FED5E1B9F
:104DA00053EC112BFBF7C1FA53EC1C2BFBF757FD0F
:104DB00041EC1A0B51EC1B0B53EC1A2BFBF74FFD7C
:104DC000CDE902019DED020B53EC1B2B51EC100BB6
:104DD000FBF7E6FD53EC1A2BFBF7E5FD9DED020B0F
:104DE00041EC1A0B53EC102B51EC100BFBF79DFA16
:104DF000CDE908014A489DED080B0521784400F0F3
:104E000097F89DED081B51EC100B53EC112BFBF7A1
:104E10008CFA9DED021B53EC112BFBF7C4FDCDE981
:104E200006019DED020B53EC1A2B51EC100BFBF716
:104E30007CFA53EC1A2BFBF712FD9FED3B0B41EC78
:104E40001A0B53EC102B9DED060B51EC100BFBF7DE
:104E5000A7FD9DED060B41EC1B0B53EC102B9DEDBC
:104E6000020B51EC100BFBF760FA53EC1B2BFBF71A
:104E7000CEFA53EC1A2BFBF793FD9DED021B53EC7E
:104E8000112BFBF78DFD53EC192BFBF78CFDCDE9B6
:104E9000020101EB065001150029C8BF039015DC83
:104EA0009DED020B324651EC100BFBF77FFDFFF737
:104EB000FBF9042808BF00F0FBF832469DED020B19
:104EC00051EC100BFBF772FDCDE902019DED020BD9
:104ED00051EC180B53EC102BFBF727FAFFF73ABBFA
:104EE0000000904000000000FE822B654715973CB3
:104EF00000CC904000346F3F01FCFFFF0000E03F1A
:104F0000685C0000FFFF0F0000000000432EE63F3A
:104F1000396CA80C615C20BEEF39FAFE422EE63FE8
:104F2000385B0000000000000000000000000040AE
:104F300070B504462DED028B4D1E00EBC500B0EEA2
:104F4000408AF0EE608A90ED000B35F0060017D035
:104F500053EC182B51EC100BFBF7E7F941EC100B5D
:104F60006D1E04EBC50090ED001B51EC100B53ECD3
:104F7000112BFBF774FC41EC100B35F00600E7D168
:104F8000022D36D0042D1CD0062D1CBFBDEC028B8B
:104F900070BD53EC182B51EC100BFBF7C6F994EDD8
:104FA0000A1B53EC112BFBF75AFC53EC182BFBF7A5
:104FB000BCF994ED081B53EC112BFBF750FC41ECB2
:104FC000100B53EC182B51EC100BFBF7AEF994EDD2
:104FD000061B53EC112BFBF742FC53EC182BFBF791
:104FE000A4F994ED040B53EC102BFBF738FC41ECC7
:104FF000100B53EC182B51EC100BFBF796F994EDBA
:10500000021B53EC112BFBF72AFC53EC182BFBF77C
:105010008CF994ED001B53EC112BFBF720FCBDEC3D
:10502000028B41EC100B70BD9FED070B10B553ECDC
:10503000102B9FED070B51EC100BFBF7E8F941EC3F
:10504000100B10BD00000000000000000000000078
:10505000000000000000F03F10B553EC112B51ECA4
:10506000100BFBF7FCFB41EC100B10BD0000000027
:105070009FED050B10B553EC102B51EC100BFBF70B
:10508000C6F941EC100B10BD00000000000000004C
:105090009FED050B10B553EC102B51EC100BFBF7EB
:1050A00044F941EC100B10BD00000000000000703E
:1050B0009FED050B10B553EC102B51EC100BFBF7CB
:1050C00034F941EC100B10BD00000000000000108E
:1050D00002E008C8121F08C1002AFAD170477047C1
:1050E000002001E001C1121F002AFBD1704700001F
:1050F0000149086070470000380200202DE9FF5F79
:1051000082B00021DDE90430020DDDF840B0034338
:1051100018D044F61050A2F2FF32424315141198F1
:1051200001281FD0A5EB0B00401C5FEA000A4FF0DE
:1051300000064E4FDFF83891B046504615D5CAF1FB
:10514000000413E0119801244AA3012801D16FEA59
:105150000B010298119AC0E90031C0E9024206B081
:10516000BDE8F09FCBF10000DFE704460021404A94
:10517000491842EB0450CDE9001012E0E00707D0D7
:1051800032463B4640464946FBF7CFF880468946C3
:1051900032463B4610461946FBF7C7F806460F460F
:1051A0006410002CEAD1DDE90401DDE90023BAF145
:1051B000000F06DAFBF7B9F842464B46FBF7B5F8A5
:1051C00005E0FBF724F942464B46FBF720F904467D
:1051D0000E460022284BFBF7EBF903D84FF0FF30C7
:1051E000014607E00022254B20463146FBF737FBFE
:1051F000FBF7F3FB102409E0002C0ADB0A22002352
:10520000FBF720FA039B30321A55641E50EA010264
:10521000F2D1641C039AC4F111031444119A012AB7
:1052200003D0012208430DD10AE0084304D0002036
:105230004FF0110B119072E7A3EB0B056D1E0DE003
:105240005B4504DD4FF0000205F1010504E003DADF
:105250004FF00002A5F10105002AECD00298119947
:10526000C0E90231C0E9004579E7000000001440C0
:105270000000F03F300000000000F0430000E03F7D
:105280002DE9FF4F95B09B468946064600250FE263
:10529000252877D100242746F84A0121059400E00B
:1052A000044316F8013F203B01FA03F01042F7D106
:1052B00030782A2811D06FF02F033078A0F1300217
:1052C000092A16D8059A44F0020402EB820203EB85
:1052D00042021044761C0590EFE759F8042B059222
:1052E000002A03DA504244F40054059044F00204CA
:1052F000761C30782E2816D116F8010F44F00404DD
:105300002A280DD06FF02F023078A0F13003092B3E
:1053100009D807EB870302EB4303C718761CF3E7B2
:1053200059F8047B761C30786C280FD006DC4C28AA
:1053300017D068280DD06A2814D104E0742810D042
:105340007A280FD10DE044F400140AE044F48014EC
:1053500001E044F440147278824202D104F58014D2
:10536000761C761C307866280BD013DC582877D052
:1053700009DC002875D04528F6D04628F4D0472807
:105380001AD19DE118E0632835D0642879D06528CA
:1053900012D195E1702873D008DC6728F1D0692814
:1053A0006FD06E280DD06F2806D1B5E073282CD0B1
:1053B000752875D0782874D05A46179990476D1C77
:1053C00075E1C4F30250022809D003280DD0D9F8A2
:1053D000001004280DD00D6009F1040967E1D9F827
:1053E0000010EA17C1E90052F6E7D9F800100D8065
:1053F000F2E70D70F0E719F8041B8DF8001000209B
:105400008DF80100EA46012003E059F804AB4FF0A3
:10541000FF3061074FF0000102D40DE008F10101F7
:105420008846B9420FDA8045F8DB1AF808100029DF
:10543000F4D108E008F1010188468142FADB1AF84C
:1054400008100029F6D105985B46A0EB0807214615
:105450003846179A00F094FA284400EB080507E054
:105460004DE029E10DE01AF8010B5A4617999047D3
:10547000B8F10108F7D25B4621463846179A13E186
:1054800042E00A220092C4F302524FF0000A022ABC
:1054900008D059F804CB032A4FEAEC710AD00DE08A
:1054A00029E02AE009F1070121F00702F2E802C130
:1054B000914609E00FFA8CFC4FEAEC71042A03D103
:1054C0004FFA8CFC4FEAEC71002907DA0A460021FA
:1054D000DCF1000C61EB02012D2202E0220504D573
:1054E0002B228DF80420012203E0E20701D02022C4
:1054F000F7E7904659E00A2102E010220DE0102162
:105500004FF0000A00910BE010224FF0000A44F027
:1055100004040827009203E008224FF0000A0092DA
:10552000C4F30252022A05D059F804CB0021032A01
:1055300008D009E009F1070121F00702F2E802C1F1
:10554000914605E01FFA8CFC042A01D10CF0FF0CF7
:105550004FF00008220728D5702806D0009B83F062
:10556000100353EA0A0305D00EE040228DF8042010
:10557000012208E05CEA010206D030228DF8042006
:105580008DF8050002229046009B83F0080353EA41
:105590000A030AD15CEA010201D1620705D5302273
:1055A0008DF804204FF001087F1E582804D034A045
:1055B00003900EA802900DE036A0F9E7534660462E
:1055C000009AFBF73FF884460398825C0298401EDD
:1055D000029002705CEA0100F0D1029806A9081A54
:1055E00000F1200A600702D524F4803400E001278E
:1055F000574502DDA7EB0A0000E0002000EB0A019E
:10560000009005984144401A0590E00306D45B469B
:105610002146179A059800F0B3F90544002706E0E3
:1056200001A85A46C05D179990476D1C7F1C4745DD
:10563000F6DBE0030CD55B462146179A059800F08F
:105640009FF9054404E030205A46179990476D1C95
:105650000099481E00900029F5DC08E002980299A4
:105660005A460078491C0291179990476D1CBAF16F
:105670000001AAF1010AF1DC65E10000092801003E
:1056800030313233343536373839616263646566B8
:10569000000000003031323334353637383941427A
:1056A000434445460000000000F058F90544761CCC
:1056B000307800287FF4ECAD19B02846BDE8F08FB3
:1056C000620700D4062709F1070222F0070CFCE864
:1056D0000223E14603F000485FEA080C02D00FF213
:1056E000702C0DE05FEA045C02D50FF2682C07E035
:1056F0005FEAC47C02D00FF2602C01E0AFF2700CC4
:105700004FF0FF3823F00043CDF850C065280CD08F
:1057100006DC452809D046281DD047283DD13DE06C
:10572000662818D067287ED138E00021112F01DBD0
:10573000112000E0781CCDE9000106A90EA8FFF7B2
:10574000DDFCDDE90F010E9A03910021009207F1C3
:10575000010A04914DE04FF000400097CDE901109F
:1057600006A90EA8FFF7CAFCDDE90F0203920E9B03
:1057700011990022DDF80CA00093049211B9791C54
:1057800000EB010AB7EB0A0004D4C0F1FF3007F1C7
:10579000010A0490AAEB0700019044E0012F00DA0F
:1057A00001270021112F01DD112000E03846CDE94D
:1057B000000106A90EA8FFF7A1FCDDE90F010E9A72
:1057C0000391002104910092BA4621070CD4039959
:1057D000514500DA8A46BAF1010F05DD009AAAF1B7
:1057E0000101515C302908D0B84202DA10F1040FEF
:1057F00006DA0121CDE9011015E0AAF10101E9E77E
:10580000002805DC049901440491AAEB000102E0A0
:10581000411C514500DD8A460499401A401C019004
:105820004FF000400290200704D40198504501DB5E
:10583000CDF8048000208DF84F0002980DF14F073D
:10584000B0F1004F25D02B200E9002984FF00208A7
:1058500000280CDA404202902D200E9007E00A2129
:105860000298FAF7D9FE3031029007F8011DB8F11D
:105870000001A8F10108F2DC02980028EFD1791E9E
:105880000E980870307800F0200040F0450007F8CE
:10589000020D12A8C01B00F107081498007800B18F
:1058A000012000EB0A01019801EBE07105984144E9
:1058B000401A401E0590E00306D45B462146179A25
:1058C000059800F05DF805441498007818B15A4620
:1058D000179990476D1CE00324D55B462146179A23
:1058E000059800F04DF805441CE00498002807DBFB
:1058F000DDE90301884203DD0098405C179901E06F
:10590000179930205A469047049805F10105401C2C
:1059100004900198401E019004D12E205A461799F8
:1059200090476D1CBAF10001AAF1010ADDDC05E027
:1059300017F8010B5A46179990476D1CB8F10001F2
:10594000A8F10108F4DC5B462146179A0598ABE6FE
:105950002D0000002B000000200000002DE9F04188
:10596000044600251E461746880404D405E039463F
:105970002020B0476D1C641EF9D52846BDE8F08193
:105980002DE9F041044600251E469046C80301D586
:10599000302700E02027880404D505E0414638463A
:1059A000B0476D1C641EF9D52846BDE8F0810A6831
:1059B000531C0B60107070470146002002E000226B
:1059C0000A54401C6428FADB012070470FB40FB55D
:1059D00000200290039000900190DDE9090140EA67
:1059E00001200B9940EA01400290DDE9100140EAF4
:1059F0000120129940EA01400090009902988842E3
:105A000003DD012004B05DF814FB00990298884280
:105A100002DA4FF0FF30F5E7DDE9060140EA012048
:105A20000390DDE90D0140EA0120019001990398FE
:105A3000884201DD0120E5E701990398884202DAF6
:105A40004FF0FF30DEE70020DCE700000449086883
:105A50000968096A024A116000210162704700006A
:105A6000D000002001200549096809B1002003E0A9
:105A70000349096801B10020704700004C11002063
:105A8000DC01002082B0CDE9000121F0004001904E
:105A90009DED000B02B051EC100B704770B52DED71
:105AA000088B04462046FAF732FD41EC1A0B9FEDB5
:105AB0001F0B53EC102BFAF738FC41EC190BFAF7DB
:105AC0008FFD05462846FAF748FD41EC1B0B9FED7C
:105AD000191BB0EE4B0AF0EE6B0AFEF701FCB0EEBC
